:020000040000fa
:080000000002040000000000f2
:020000040000fa
:10000800e2030000e2030000e2030000e203000054
:10001800e2030000e2030000e2030000e203000044
:10002800e2030000e2030000e2030000e203000034
:10003800e2030000e2030000e2030000e203000024
:10004800e2030000e2030000e2030000b2c1000086
:10005800f4c10000e2030000e2030000e203000034
:10006800e2030000e2030000e2030000ead000001f
:10007800e2030000e2030000e2030000e2030000e4
:10008800e2030000e2030000e2030000e2030000d4
:1000980076d10000e2030000e2030000e203000062
:1000a800e2030000e2030000e2030000e2030000b4
:1000b800e2030000e2030000e2030000e2030000a4
:1000c800e2030000e2030000e2030000e203000094
:1000d800e2030000e2030000e2030000e203000084
:1000e800e2030000e2030000e2030000e203000074
:1000f800e2030000e2030000e2030000e203000064
:10010800e2030000e2030000e2030000e203000053
:10011800e2030000e2030000e2030000e203000043
:10012800e2030000e2030000e2030000e203000033
:10013800e2030000e2030000e2030000e203000023
:10014800e2030000e2030000e2030000e203000013
:10015800e2030000e2030000e2030000e203000003
:10016800e2030000e2030000e2030000e2030000f3
:10017800e2030000e2030000c09b0000e20300006d
:10018800e2030000e2030000e2030000e2030000d3
:10019800e2030000e2030000e2030000e2030000c3
:1001a800e2030000e2030000e2030000e2030000b3
:1001b800e2030000e2030000e2030000e2030000a3
:1001c800e2030000e2030000e2030000e203000093
:1001d800e2030000e2030000e2030000e203000083
:1001e800e2030000e2030000e2030000e203000073
:0801f800e2030000e203000035
:020000040000fa
:10020800e2030000e2030000e2030000e203000052
:10021800e2030000e2030000e2030000e203000042
:10022800e2030000e2030000e2030000e203000032
:10023800e2030000e2030000e2030000e203000022
:10024800e2030000e2030000e2030000b2c1000084
:10025800f4c10000e2030000e2030000e203000032
:10026800e2030000e2030000e2030000ead000001d
:10027800e2030000e2030000e2030000e2030000e2
:10028800e2030000e2030000e2030000e2030000d2
:1002980076d10000e2030000e2030000e203000060
:1002a800e2030000e2030000e2030000e2030000b2
:1002b800e2030000e2030000e2030000e2030000a2
:1002c800e2030000e2030000e2030000e203000092
:1002d800e2030000e2030000e2030000e203000082
:1002e800e2030000e2030000e2030000e203000072
:1002f800e2030000e2030000e2030000e203000062
:10030800e2030000e2030000e2030000e203000051
:10031800e2030000e2030000e2030000e203000041
:10032800e2030000e2030000e2030000e203000031
:10033800e2030000e2030000e2030000e203000021
:10034800e2030000e2030000e2030000e203000011
:10035800e2030000e2030000e2030000e203000001
:10036800e2030000e2030000e2030000e2030000f1
:10037800e2030000e2030000c09b0000e20300006b
:10038800e2030000e2030000e2030000e2030000d1
:10039800e2030000e2030000e2030000e2030000c1
:1003a800e2030000e2030000e2030000e2030000b1
:1003b800e2030000e2030000e2030000e2030000a1
:1003c800e2030000e2030000e2030000e203000091
:1003d800e2030000e2030000e2030000e203000081
:1003e800e2030000e2030000e2030000e203000071
:0803f800e2030000e203000033
:020000040000fa
:100400000f0223000e7f24000e0188000000000070
:10041000000020000000e000020032000001200087
:10042000200288000c000700e0492d000100200098
:1004300011000700000020000000e0000200320070
:1004400000000200000000006acf0200000000006f
:100450000040da000000fe004440a9008025200092
:100460000000e0000300320000002000a00188002e
:100470004440a80000000600910188008000780038
:100480000000eb0015003700e280400032a0b4000d
:100490009101ba00e280400032a0b4009102ba009b
:1004a000e280400032a0b4000002eb00472bde00e7
:1004b000f507b200602ce10004003a000059eb009f
:1004c0008301e900fdff3e00040037006128e100e0
:1004d000010032000082eb00040007001101ba00a5
:1004e0000200e000e8ff3a00000006003159ba00bf
:1004f0008301e9000c0032002159ba008301e900b0
:10050000080032000400e00003003a00e2804000ee
:1005100032a0b400f5ff370011d9ba008301e90019
:10052000faff3a008100e800e180400032a0b40008
:100530000000060092d0040000000000a6d00400d5
:100540000000000060d104000000000054d104004d
:100550000000000046d104000000000098c2040022
:1005600000000000b4c204000000000078c30400d2
:1005700000000000a6c304000000000078c10400d1
:10058000000000002ac20400000000001ec3040096
:1005900000000000d8c004000000000024c80400cf
:1005a000000000000cc904000000000002c90400a3
:1005b0000000000052d2040000000000a6d1040098
:1005c0000000000002d2040000000000c6d10400b8
:1005d0000000000062d2040000000000f4d104001a
:1005e00000000000e6d104000000000060d3040019
:1005f0000000000036d30400000000004ed30400c9
:10060000000000003cc904000000000016c90400fe
:10061000000000005cc904000000000074c9040070
:1006200000000000cac9040000000000a4c90400c2
:1006300000000000eac904000000000002ca040033
:100640000000000058ca04000000000032ca040084
:100650000000000078ca04000000000090ca0400f6
:10066000000000008ece04000000000038ce040020
:100670000000000028cf040000000000d0ce0400dd
:10068000000000002acb04000000000048cb04005a
:100690000000000068cb04000000000088cb0400cc
:1006a00000000000a8cb040000000000f8cb04000c
:1006b0000000000048cc04000000000098cc0400ba
:1006c00000000000e8cc040000000000bed20400de
:1006d00000000000aed204000000000074d204004c
:1006e0000000000094d20400000000009ed204002c
:1006f00000000000a8d20400000000002ad304007b
:100700000000000022d3040000000000ead2040030
:100710000000000008d304000000000012d3040011
:10072000000000001cd304000000000032d50400cb
:1007300000000000a2d504000000000060d4040006
:100740000000000094d40400000000008ad40400db
:100750000000000036bd04000000000026b60400c2
:10076000000000001eb604000000000008b60400ef
:10077000000000006cb70400000000002abc040068
:1007800000000000cebb040000000000fecc04000e
:10079000000000005c9f040000000000509f040067
:1007a000000000000acd04000000000088d0040012
:1007b0000000000012d00400000000003cd0040043
:1007c000000000000040da000000fe0003f0a2007c
:1007d000889fbe008a9fbe008c1f7800f90007002a
:1007e000000133006450e1004f0032006420e1005a
:1007f0005200320003826c0007003b000905d00064
:100800000306d000820f54000c065d000200390080
:1008100002003200890178000306780085825500c5
:1008200004003d000003fd008103fd008502ea0095
:100830008b854200840f720002003b0060001000b4
:10084000e08018006011b8000005eb007a28e10094
:100850000a00390006007800c75ddd00f707b20026
:10086000878075002d003700828171000a017800b1
:10087000610560008180d1000080d3008502e9001d
:10088000f9ff3b00060440008784480002003b005b
:1008900060041400e0841c000988a30007003200f3
:1008a0008a81710082817100610164008904d10034
:1008b0000884d3008b05e800170037000978a300ef
:1008c00013003a000b00e000130034008b05e90030
:1008d0000804440089844c000a4474000978a30089
:1008e0000d003a000b00e000070034008b05e90022
:1008f0000804440089844c0001003a000b002000e9
:100900000978a300f7ff32000001eb000200370076
:10091000828171000a0178006f0007000cf0a700c7
:1009200001f0a000b80037006420e10002003a00a6
:10093000838f6c00b80033000801be000200be00c7
:10094000b1003700889fbe008a9fbe008c1f7800d0
:100950009c000700a300330003866c006450e10094
:100960002e0032006420e100330032006150e100cb
:100970002f0032006120e1003100320085855500f2
:10098000eb07b00009002000080420000500370034
:100990000804440089844c000a0031000603430027
:1009a00087834b000001530081815b00f8ff330017
:1009b0000203be000800a0000804440089844c0023
:1009c000f6ff3900c639dd008301730001003200f3
:1009d000130020008904d1000884d3000998a300e3
:1009e000050032000800a7000300a0008904d10020
:1009f0000884d3008b05e8008904d1000884d30063
:100a00000001eb000281d2003300070001f0a100d9
:100a10000cf0a70001f0a0007b0037006420e1008b
:100a20007d0032000801be000200be00f7ff370063
:100a30006120e100780032006000b800f3ff370069
:100a40000000200001f82700f0ff37000001be0081
:100a5000470007000470a70003f0a1006509b1007a
:100a6000160032000d0035006828e1000600350050
:100a7000f0ff2f00f1ff27000300e00013003b0010
:100a800001002800000005000000400081804800af
:100a90008502e900fcff3a0008003700f88f4200a9
:100aa00002003c008000eb00000005008100d10046
:100ab0000080d3008502e800fcff3a000300e0005c
:100ac00002003b0060001000e080180000000600fb
:100ad0006011b8009101370081002000618055004d
:100ae0000b003d000b00200061fe2f000100e10023
:100af0001d00340082817100610164008904d1000d
:100b00000884d3000000e800faff3a0071002000da
:100b10006100640003007000020060000900320000
:100b200061044400e0844c000988a50005003200ff
:100b30008b05e8006808e10002003a008904d10052
:100b40000884d300f20f20000258e10005003d00a8
:100b5000c75ddd00f907b2008980750008007800e4
:100b6000000006000bf827008b007800000005004d
:100b7000c70ade00f107b200f50fb200080032002c
:100b8000e1cf4200020032000170a0002400050005
:100b9000810f7000010032000408050044000500c8
:100ba000810f700002003a00140005008502e90080
:100bb0000000400081c04800fcff3b000170a00025
:100bc000240005000004be00e9ff07000003be008a
:100bd0000405be000200be00e5ff0700844f75005b
:100be000000006000200be006450e100050036006f
:100bf0006420e100020036000968a30001003a0009
:100c00000800be000160a0004f0678004f05be003e
:100c10004f04be0000000600f0ff2f00f1ff270088
:100c2000f9ff37006022b800060220000000d00063
:100c30008180d2000482d2008582d2000000a00010
:100c40000202520083825a00030031000202420075
:100c500083824a000000a1000603e900f3ff3a0086
:100c600000000600efff07000400be0000000600c1
:100c7000889fbe008a9fbe0030044200b0844a00b4
:100c800030054b0090854b006000b1000898be0015
:100c90000a90be000440e10005c8e10006d0e10072
:100ca00007d8e10002003100680040001008e800a9
:100cb0004f05be004f04be0000000600889fbe0026
:100cc0008a9fbe003004be002005be0004185400f8
:100cd00005985c0006185d0007985d001100200073
:100ce0000440e10005c8e10006d0e10007d8e100ba
:100cf000010039008000eb00108810004f05be0095
:100d00004f04be00000006001200fa00889fbe00db
:100d10008a9fbe008c9fbe00e0b79f00f1b79f0086
:100d200082bf9f0093bf9f000605be000404be0063
:100d30000000eb00d0b79f00c0b79f00b0b79f0086
:100d4000a0b79f0090b79f000006eb005fb197002f
:100d5000cfb09700820141003fb097000200e00051
:100d600004003d00370007007e805700c0ff0700e9
:100d700003003700330007007e805700cfff0700d5
:100d8000dfb697000d00e0000c0035006fb2970051
:100d9000ffb297000fbb97009fbb97001000200089
:100da000010020006011b800000272008182720010
:100db00002037300838373001b0007000c06e80026
:100dc00001042000810f5600e0ff3a000d00e00012
:100dd00004003d000802be000a03be007e805700ea
:100de000a3ff07005fa897000000e00005003a009d
:100df0001fb29700afb297003fb39700cfb39700f1
:100e0000090007006fb09700ffb097000fb9970077
:100e10009fb997004f06be004f05be004f04be00ad
:100e20000080fa0000000600010007000000060034
:100e3000a4b79f00b5b79f00c6b79f00d7b79f0064
:100e4000000006004f09de0082817100b3b79f00e9
:100e50004f01de008180400082807000a1b79f00ba
:100e60008fb097004f09de000000400002007000c4
:100e700090b79f007fa897004f01de00818040005f
:100e80008280700081b79f000d0007004f3ade009e
:100e90000000400004007000f0af9f000800070051
:100ea0000402420085824a0006034b0087834b0000
:100eb000dfff07000802be000a03be0000000600b4
:100ec0002fb29700bfb297004fb39700dfb39700e0
:100ed00000000600881f780018002000881f780096
:100ee00089ff07008f87e9004f04780000000600a3
:100ef000801feb0084ff07008f87e90000000600d9
:100f0000889fbe008a9fbe00e00f5000e08f58000f
:100f1000e00f5900e08f59000c003d006044b8001c
:100f20006055b8000000540081805c0002015d0043
:100f300083815d00180020001500070008003d00b7
:100f4000180007000004eb00050037000004eb0068
:100f50000f00070002003d001200070018002000eb
:100f6000dcff07000800e000060032006022b80045
:100f70006033b8000000520081805a0002015b001b
:100f800083815b004f05be004f04be0000000600d9
:100f9000e00f5200e08f5a00e00f5b00e08f5b0033
:100fa000000006006044b8006055b8000402540018
:100fb00085825c0006035d0087835d0000000600fb
:100fc000889fbe008a9fbe008c1f7800e00f5000f3
:100fd000e08f5800e00f5900e08f59000d003d00f0
:100fe0006044b8006055b8000000540081805c0087
:100ff00002015d0083815d001c0020000820e100eb
:1010000009a8e1000ab0e1000bb8e1000d003d00c5
:10101000080037000006eb00e00f5200e08f5a0096
:10102000e00f5b00e08f5b0006003d006044b8000d
:101030006055b8000402540085825c0006035d0020
:1010400087835d00aaff07000c00e0000600320065
:101050006022b8006033b8000000520081805a005e
:1010600002015b0083815b004f0678004f05be00e4
:101070004f04be0000000600889fbe008a9fbe008d
:101080008c1f78000006eb00e00f5000e08f580046
:10109000e00f5900e08f590007003d006044b800a0
:1010a0006055b8000000540081805c0002015d00c2
:1010b00083815d001c002000e00f5200e08f5a0089
:1010c000e00f5b00e08f5b0007003d006044b8006c
:1010d0006055b8000402540085825c0006035d0080
:1010e00087835d000c00a2003b0007000c00e000bd
:1010f000060032006022b8006033b80000005200e1
:1011000081805a0002015b0083815b004f067800fa
:101110004f05be004f04be0000000600889fbe00c1
:101120008a9fbe0000827000040271000482710078
:10113000260032000004be000200be006011b800ac
:101140006b092000950220000182cf000a003900bf
:101150000541b1000082cf00070039000541b10010
:101160000982cf00040039000541b1000882cf0098
:10117000010039000541b100054252001200320061
:101180000a003b0082817100610164008100d1008e
:101190000080d3008984d3000884d3008b05e80045
:1011a0000442e800f7ff3a00070037000804440053
:1011b00089844c0000004800818048008b05e900cc
:1011c0000442e900f9ff3a0043fe07004f05be0064
:1011d0004f04be0000000600889fbe008a9fbe002c
:1011e0008c9fbe000404b8000506b80089044600c0
:1011f00060854e000606b8000a054600e0854e00f0
:101200000706b8008b054600040eb80089044600a6
:101210000a854e00e0854d00050eb8000a0546001f
:101220008b854e00060eb8008b0546000416b800ec
:101230000a0546008b854e000516b8008b05460052
:10124000041eb8008b0546000800be000a01be005f
:101250004f06be004f05be004f04be000000060052
:10126000800078001104b100030035009101b10045
:1012700001003c000050a000000006008000780043
:101280001106b100030035009101b10001003c00de
:101290000050a10000000600800178000200370025
:1012a000b15978000201e9000200e000fcff3a00b9
:1012b00000000600800178000200370081597800a4
:1012c0000201e9000200e000fcff3a000000060015
:1012d00000017800b1417800035978000304e00070
:1012e000fcff3a0000000600800078000101780051
:1012f0003104e000fdff3a0000005100000006004c
:101300008001780002003700845978000201e9006a
:101310000200e00006003200314278000404e000e0
:10132000f9ff3a00020037008059eb000201e900a2
:0c1330000200e000fcff3a000000060094
:020000040000fa
:10133c001201000000020000000000000008000084
:10134c00d8040000090000000100000001020000a8
:10135c000301000009020000200000000101000050
:10136c0000c0000032090000040000000002000070
:10137c000806000050000000070500008102000074
:10138c0040000000010700000501000002400000c1
:10139c0000010000040300000904000034030000f5
:1013ac004d000000690000006300000072000000a6
:1013bc006f0000006300000068000000690000007e
:1013cc0070000000200000005400000065000000c8
:1013dc0063000000680000006e0000006f00000059
:1013ec006c0000006f000000670000007900000036
:1013fc0020000000490000006e00000063000000a7
:10140c002e0000003a0300004d00000069000000af
:10141c0063000000720000006f0000006300000019
:10142c00680000006900000070000000200000004f
:10143c004d0000006100000073000000730000000c
:10144c002000000053000000740000006f0000003a
:10145c0072000000610000006700000065000000e1
:10146c002000000044000000720000006900000031
:10147c0076000000650000001a0300003100000037
:10148c003200000033000000340000003500000082
:10149c003600000037000000380000003900000062
:1014ac00300000003900000039000000b089000055
:1014bc00d0890000d4890000088a0000428a00000c
:1014cc0000950000000000000000000001f9000081
:1014dc00000000000000000008870000040000006d
:1014ec000000000009af0000000000000100000037
:1014fc000a1b000000000000010000000cc30000eb
:10150c0001000000000000000daf00000200000010
:10151c000000000010ff00000000000000000000b0
:10152c0011ff0000000000000100000012ff00008d
:10153c00000000000100000018ff00000000000087
:10154c000100000019ff0000000000000100000075
:10155c0020ff0000000000000000000021ff000040
:10156c00000000000000000026df00000100000069
:10157c0000000000377300000000000000000000b5
:10158c003a25000004000000000000003b2500008c
:10159c00000000000000000029ff00000400000013
:1015ac000000000017ff0000000000000000000019
:1015bc0098c20000b4c2000078c30000a6c30000ab
:1015cc0078c100002ac200001ec30000d8c0000071
:1015dc00696d000061670000652000003d2000007f
:1015ec00003000003132000033340000353600008a
:1015fc0037380000394100004243000044450000e8
:10160c004600000024c800000cc9000002c90000fc
:10161c00ffff0000ff0000000000000000000000c1
:10162c00fecc00005c9f0000509f0000509f00000b
:10163c000acd000000800000040200002000000021
:10164c00000000004d690000637200006f63000031
:10165c00687000004d61000073730000205300009f
:10166c00746f0000726100006765000020200000ac
:10167c002020000030300000303100006461000098
:10168c00746100004c6f0000672e0000747800003d
:10169c007400000060d3000036d300004ed300006d
:1016ac00ac0800003031000032330000343500004b
:1016bc003637000038390000414200004344000036
:1016cc004546000000000000612b000000000000f7
:1016dc003cc9000016c900005cc9000074c90000b8
:1016ec00cac90000a4c90000eac9000002ca00006f
:1016fc0058ca000032ca000078ca000090ca000024
:10170c0000000000000000000000000000000000cd
:10171c00bed20000aed2000074d2000094d2000001
:10172c009ed20000a8d200002ad3000022d30000d1
:10173c00ead2000008d3000012d300001cd3000032
:10174c002acb000048cb000068cb000088cb0000ff
:10175c00a8cb0000f8cb000048cc000098cc0000cf
:10176c00e8cc000052d20000a6d1000002d200004a
:10177c00c6d1000062d20000f4d10000e6d1000016
:10178c0092d00000a6d0000060d1000054d100001f
:10179c0046d100002e0000002e00000000000000ca
:1017ac002e2e000000000000446100006e2000009e
:1017bc005361000079730000000000008ece000021
:1017cc0038ce000028cf0000d0ce000060d400003e
:1017dc0094d400008ad4000032d50000a2d50000b9
:020000040000fa
:1017ec000200fa000000eb00000f78000500370043
:1017fc00a09c21001e00400011c0b30001487800dd
:10180c001e0fe8001e007800e20f5000f8ff3400b5
:10181c005468ef004e68ef000080eb008080eb0016
:10182c0010458800214588000080eb008080eb008b
:10183c00304588004145880010c0b3005be8b70014
:10184c000455070060692200970707000080fb0021
:10185c00e60f50000a00320011022000810f5000e8
:10186c000e003a00415f84000000eb000100010013
:10187c00215f8400200320000100010007003700d5
:10188c00415f84002003200001000100215f8400df
:10189c000000eb00010001000000000020c0b300bc
:1018ac005be8b700606922007f0707000004e000d6
:1018bc003b003a0050458000616922000108780025
:1018cc00504580008000eb0051009800504580008e
:1018dc008000eb0061009800524580006000b80069
:1018ec007001980001099800524580006000b80012
:1018fc00100998002109980050458000c1c5b3001b
:10190c004158980010002000000f780006003700a6
:10191c00504580001e0040007c00400001c2b30016
:10192c00014878001e0fe8001e007800ea0f5000f6
:10193c00f7ff3400504580008000eb0071109800d8
:10194c00504580000101200011189800524580007c
:10195c00b0428000c14280002019980031199800d3
:10196c0052458000b0428000c1428000401998006e
:10197c00511998005045800011002000411098002a
:10198c00504580008000eb006110980030c0b3001f
:10199c005be8b7005a68ef00100020000300370026
:1019ac0040c0b3005be8b7000000eb000080fa0019
:1019bc00000006006000fa00881f7800502f980085
:1019cc00612f980062df980073df98005e2890000a
:1019dc007010900040179800b0002000000f7800a5
:1019ec00803d2200600f98006e289000d01090006f
:1019fc00710f98000000eb00400798000000eb000e
:101a0c00500798000000eb00700798000000eb00f6
:101a1c00000f98000000eb00300f98000040eb0026
:101a2c00205f98000040eb00006798006e28900043
:101a3c006010900020438800204380000000e000ec
:101a4c001800320021438000d000200000017800f3
:101a5c00110009008280d8008000fd00006798000a
:101a6c0021438000d0002000000178001100090003
:101a7c008280d800404798000e6090000004e0007f
:101a8c0003003a0020438000ec0f500003003e009e
:101a9c004e4090000040e80040479800ce40900037
:101aac00215f98005e289000b018900020189000dc
:101abc005e29900040199800511998006e289000ea
:101acc0010199000020078000080ea008180ea0082
:101adc00101798004e1090000000e0000b003a0028
:101aec00800220000e00400012c0b300800078007d
:101afc005e289000fa1607000000e00011003a0082
:101b0c00b0012000000f78000e0037004e1090003e
:101b1c006f0060000000e0000a003200800220002c
:101b2c000e00400012c0b300800078005e289000c8
:101b3c00eb1607000000e00002003a00b0012000a4
:101b4c00000f78001e007800fb0f5000c605320015
:101b5c001e0078000000e000c00532000000eb0021
:101b6c00100f98000000eb00200f9800810220005d
:101b7c008e804000a00220000e0040000101780081
:101b8c00800078005e289000631f07004067980073
:101b9c004e609000e24f5000b20532004e60900053
:101bac000004e0009d053a005e709000ef4f50007d
:101bbc001b0032000000eb00000f9800ae68900094
:101bcc006e089000014878000040eb0040479800f8
:101bdc000d0037004e4090000080fb000000e80034
:101bec00ee08900000804000ce4090008180fb0009
:101bfc0081004700b1689000014878004e40900089
:101c0c000040e800404798004e409000e94f5000db
:101c1c00f0ff360010002000100f980079013700fb
:101c2c002e6890008080fb00000420000080600083
:101c3c000000e000d90032002e6890007f40600068
:101c4c00506798007ed890000004e00011003a0024
:101c5c00204380000000e00004003200de609000b1
:101c6c002e58900080cf500006003a002043800090
:101c7c000000e00007003a005e609000e14f500069
:101c8c00040032004e1090000000e800401798004d
:101c9c00710537002e6890008080fb00f00b20004f
:101cac00008060006d00b900000078000000e900c1
:101cbc00400798004e01900032079800ce2090000b
:101ccc004e00900000014000803d220000004100c9
:101cdc00010878004e0090000000e90040079800d1
:101cec00be2090004e00900000014000803d22007c
:101cfc0000004100010878004e0090000000e9004f
:101d0c00400798009e2090004e009000000140007b
:101d1c00803d220000004100010878004e00900038
:101d2c000000e900400798008e2090004e009000c3
:101d3c0000014000803d22000000410001087800b5
:101d4c004e0090000000e90040079800fe1890003b
:101d5c004e00900000014000803d22000000410038
:101d6c00010878004e0090000000e9004007980040
:101d7c00ee1890004e00900000014000803d2200c3
:101d8c0000004100010878004e0090000000e900be
:101d9c0040079800de1890004e00900000014000b3
:101dac00803d220000004100010878004e009000a8
:101dbc000000e90040079800ce1890004e009000fb
:101dcc0000014000803d2200000041000108780025
:101ddc004e0090000000e900400798003e70900013
:101dec0020cf98004e70900030cf9800de209000ed
:101dfc004e00900000014000803d22000000410098
:101e0c00010878004e0090000000e900400798009f
:101e1c001e70900020cf98002e70900030cf98004c
:101e2c00de2090004e00900000014000803d22001a
:101e3c0000004100010878004e0090000000e9000d
:101e4c00400798007e68900020cf98000e7090009c
:101e5c0030cf9800de2090004e0090000001400032
:101e6c00803d220000004100010878004e009000e7
:101e7c000000e900400798005e68900020cf9800b1
:101e8c006e68900030cf9800de2090004e009000dd
:101e9c0000014000803d2200000041000108780054
:101eac004e0090000000e900400798003e6890004a
:101ebc0020cf98004e68900030cf9800de20900024
:101ecc004e00900000014000803d220000004100c7
:101edc00010878004e0090000000e90040079800cf
:101eec003e0090000000e8007007980010c0b3009e
:101efc0040479800120037004e4090008080fb0055
:101f0c004e0090000080400080004000803d220088
:101f1c0000804000100078000000e00005003a004e
:101f2c004e4090008080fb004e00900000804000ee
:101f3c00700798004e4090000040e8004047980021
:101f4c004e409000ed4f5000ebff36007ed89000d5
:101f5c000004e0000b003a00fe00900020438000db
:101f6c00808f500007003200204380000000e0000a
:101f7c00040032004e1090000000e800401798005a
:101f8c00b50437007e0090000000e900500798006f
:101f9c0010002000000f9800910037000e089000f0
:101fac00e10f50008a003a00ce2090004e009000c5
:101fbc0000014000803d2200000041000108780033
:101fcc004e0090000000e90040079800be209000f1
:101fdc004e00900000014000803d220000004100b6
:101fec00010878004e0090000000e90040079800be
:101ffc009e2090004e00900000014000803d220089
:10200c0000004100010878004e0090000000e9003b
:10201c00400798008e2090004e0090000001400078
:10202c00803d220000004100010878004e00900025
:10203c000000e90040079800fe1890004e00900048
:10204c0000014000803d22000000410001087800a2
:10205c004e0090000000e90040079800ee18900038
:10206c004e00900000014000803d22000000410025
:10207c00010878004e0090000000e900400798002d
:10208c00de1890004e00900000014000803d2200c0
:10209c0000004100010878004e0090000000e900ab
:1020ac0040079800ce1890004e00900000014000b0
:1020bc00803d220000004100010878004e00900095
:1020cc000000e900400798003e70900020cf980077
:1020dc004e70900030cf9800de2090004e009000a3
:1020ec0000014000803d2200000041000108780002
:1020fc004e0090000000e900400798001e70900010
:10210c0020cf98002e70900030cf9800de209000e9
:10211c004e00900000014000803d22000000410074
:10212c00010878004e0090000000e900400798007c
:10213c007e68900020cf98000e70900030cf9800f1
:10214c00de2090004e00900000014000803d2200f7
:10215c0000004100010878004e0090000000e900ea
:10216c00400798005e68900020cf98006e68900041
:10217c0030cf9800de2090004e009000000140000f
:10218c00803d220000004100010878004e009000c4
:10219c000000e900400798003e68900020cf9800ae
:1021ac004e68900030cf9800de2090004e009000da
:1021bc0000014000803d2200000041000108780031
:1021cc004e0090000000e900400798000400370022
:1021dc004e1090000000e800401798001e043700d5
:1021ec004e0090000000e000040034004e109000ff
:1021fc000000e8004017980017043700100020007a
:10220c00200f98000000eb00000f98000000eb007e
:10221c00000f78007ed890000080fb000000e000ea
:10222c0003003200e10f500060013200c0033700a0
:10223c000040eb00404798000c0037004e409000e7
:10224c000080fb00ce4090008180fb006e09900066
:10225c0081004100914078000000470041c898007f
:10226c004e4090000040e800404798004e409000df
:10227c00ea4f5000f1ff36006e08900068004000f5
:10228c009040780000c2b30080cf5000580032005c
:10229c000040eb00404798000b0037004e40900088
:1022ac000080fb00ee089000008040009040780019
:1022bc0000c2b30080cf5000070032004e409000a7
:1022cc000040e800404798004e409000e74f500017
:1022dc00f2ff360001003700000000004e40900075
:1022ec000080fb0000004700e1c2b30041c8980029
:1022fc004e4090000040e800404798004e4090004f
:10230c000080fb00ee089000e880400091407800cf
:10231c000000470041c898004e4090000040e80083
:10232c00404798006e08900069004000904078008b
:10233c0000c2b30080cf50000b0032004e40900022
:10234c000080fb00ee089000e9804000914078008e
:10235c000000470041c898004e4090000040e80043
:10236c0040479800080037004e4090000080fb006a
:10237c00000047008040eb0041c898004e409000a0
:10238c000040e800404798006e0890006a0040004a
:10239c009040780000c2b30080cf50000b00320098
:1023ac004e4090000080fb00ee089000ea80400058
:1023bc00914078000000470041c898004e409000c2
:1023cc000040e800404798001b0037004e4090004a
:1023dc000080fb00000047008040eb0041c89800e3
:1023ec004e4090000040e800404798001200370033
:1023fc000040eb00404798000a0037004e40900028
:10240c000080fb0000004700c0c8900000c2b30071
:10241c0080cf5000070032004e4090000040e80092
:10242c00404798004e409000e74f5000f3ff3600b5
:10243c0001003700000000004e4090000080fb00bf
:10244c00000047008040eb0041c89800204380000a
:10245c000000e0007a0032002e0890000000e0003e
:10246c003f0032000000eb003007980036003700c8
:10247c006e289000401090000000e0002000320018
:10248c003e00900000004000fe08900000804000dc
:10249c0010007800204798003e009000800040001b
:1024ac00803d2200008040001000780030479800ea
:1024bc003e00900080004000803d220000804000e3
:1024cc0090007800f00f2000808f500009003e0033
:1024dc002e4090000080fb005efb0700000478009b
:1024ec003e4090000080fb005afb0700800f540018
:1024fc0012003200b0002000000f780017003700e7
:10250c003e00900000004000fe089000008040005b
:10251c00900078003e00900000014000803d2200b9
:10252c000000410010007800808f50000300320042
:10253c00b0002000000f7800080037003e0090002b
:10254c000000e80030079800be0090002043800097
:10255c00808f5000c6ff3900f5023700f4023700b7
:10256c001e0890000000e000320032006e2890003f
:10257c00401090000000e0002e003200c00420004b
:10258c000e00400055fb07008000780020438000bf
:10259c00808f500003003200b0002000000f780044
:1025ac00220037000000eb00300798001b003700ba
:1025bc003e00900000004000fe08900000804000ab
:1025cc001000780020479800c10420008e80400045
:1025dc003e0090000080400010407800304798008a
:1025ec002e4090000080fb001afb070000047800ce
:1025fc003e4090000080fb0016fb0700800f54004b
:10260c0003003200b0002000000f780007003700f4
:10261c003e0090000000e80030079800be009000db
:10262c0020438000808f5000e1ff39000000000043
:10263c00bf023700b0002000000f7800bc0237004a
:10264c002e0890000000e00035003200c00420008d
:10265c000e00400021fb0700fe009000810f50008f
:10266c0003003200b0002000000f7800b0023700e9
:10267c000000eb0030079800240037003e0090006b
:10268c0080004000803d2200008040001000780057
:10269c0020479800c10420008e8040003e0090002e
:1026ac000080400010407800304798003e009000b9
:1026bc0080004000803d22000080400090007800a7
:1026cc00f00f2000808f500009003e002e4090003b
:1026dc000080fb00dffa0700000478003e40900009
:1026ec000080fb00dbfa0700800f5400040032006e
:1026fc00b0002000000f7800000000008c023700b2
:10270c003e0090000000e80030079800be009000ea
:10271c007e009000808f5000d8ff35008402370077
:10272c000040eb00404798001c0037004e409000e2
:10273c000080fb00ee089000008040009040780084
:10274c00214798004e4090000080fb00ee2890003e
:10275c007c00400061407800304798002e4090008b
:10276c000080fb00bbfa0700000478003e4090009c
:10277c000080fb00b7fa0700800f54000400320001
:10278c00b0002000000f7800000000006802370045
:10279c004e4090000040e800404798004e409000aa
:1027ac00ea4f5000e1ff3600610237002043800001
:1027bc000000e0005c0132000000eb00300f9800dc
:1027cc002e0890000000e0001d0032005e01900019
:1027dc0062079800110037006e00900080004000e6
:1027ec00803d22000080400090007800e002200034
:1027fc00808f500006003a0010002000300f980027
:10280c006e0090000000e900600798000600370099
:10281c006e0090000000e900600798006e009000c8
:10282c000000e000ecff3c003e0890000000e000df
:10283c000d003a00de009000610798000a00370096
:10284c006e089000680040009040780000c2b30011
:10285c0080cf50000200320010002000300f980092
:10286c007000200060079800204380000000e90001
:10287c00400798000000eb00400f98001100370053
:10288c004e00900000004000fe08900000804000c8
:10289c0090007800e0022000808f500006003a0083
:1028ac0010002000400f98004e0090000000e9003e
:1028bc0040079800060037004e0090000000e90029
:1028cc00400798004e0090000000e000ecff3c0038
:1028dc004e0890000000e00003003a002043800006
:1028ec000000e900400798000000eb00300798005a
:1028fc0001003700000000003e0090000000400086
:10290c00fe0890000080400090007800a00220009b
:10291c00808f50005f003200be0090006e0090006f
:10292c00808f500003003400b0002000000f7800ae
:10293c005b0037003e00900000004000fe08900055
:10294c000080400090007800f0032000808f500041
:10295c00420032006e289000401090000000e00011
:10296c002c0032003e00900000004000fe08900059
:10297c000080400010007800204798002e0890003e
:10298c000000e000070032003e0090008000400094
:10299c00803d2200008040001000780030479800f5
:1029ac00050037003e009000ee08900000804000cb
:1029bc0010417800324798002e0890000000e0008b
:1029cc00080032003e00900080004000803d220054
:1029dc000080400090007800f00f2000808f5000a5
:1029ec0009003e002e4090000080fb0019fa070001
:1029fc00000478003e4090000080fb0015fa0700b0
:102a0c00800f540015003200b0002000000f780039
:102a1c00230037003e00900000004000fe089000ac
:102a2c0000804000900078003e00900000014000c3
:102a3c00803d22000000410010007800808f500083
:102a4c0003003a001e0890000000e0000300320072
:102a5c00b0002000000f7800110037003e009000fd
:102a6c000000e80030079800be0090004e00900077
:102a7c00808f50009fff3400be0090006e009000cd
:102a8c00808f500005003c00b0002000000f780043
:102a9c0003003700000000000100370000000000b8
:102aac004e0890000000e00006003a003e0890003e
:102abc00e10f500097013a00b0002000000f7800a1
:102acc009b0137003e0890000000e00003003a0034
:102adc00b0002000000f7800950137002e08900000
:102aec000000e000040032006e0090000080e8005e
:102afc0060079800020037008000200060079800f3
:102b0c004e0090000080e80030079800010037006c
:102b1c00000000003e00900000004000fe08900005
:102b2c000080400090007800a0022000808f5000b0
:102b3c0001003a007b0037002e0890000000e000f6
:102b4c0004003200ee0090005e009000808f500078
:102b5c0006003c001e0890000000e0000600320059
:102b6c006e009000eb0f500003003a00b000200004
:102b7c00000f78006b0037003e0090000000400012
:102b8c00fe0890000080400090007800f0032000c8
:102b9c00808f5000420032006e2890004010900050
:102bac000000e0002c0032003e00900000004000cd
:102bbc00fe0890000080400010007800204798002c
:102bcc002e0890000000e000070032006e0090001c
:102bdc0080004000803d2200008040001000780002
:102bec0030479800050037006e009000ee0890000a
:102bfc000080400090407800314798002e089000eb
:102c0c000000e000080032006e00900080004000e0
:102c1c00803d22000080400090007800f00f2000e2
:102c2c00808f500009003e002e4090000080fb0079
:102c3c0088f90700000478003e4090000080fb00fb
:102c4c0084f90700800f540015003200b0002000fa
:102c5c00000f7800330037003e0090000000400069
:102c6c00fe08900000804000900078006e009000fc
:102c7c0000014000803d220000004100100078005f
:102c8c00808f500003003a001e0890000000e00006
:102c9c0003003200b0002000000f78002100370044
:102cac006e0090000000e800600798003e00900065
:102cbc000000e80030079800be0090002043800020
:102ccc00808f500092ff3a002e0890000000e00028
:102cdc0004003200ee0090005e009000808f5000e7
:102cec000d0034001e0890000000e0000c003200c3
:102cfc006e009000ea0f500009003c006e0090003e
:102d0c00ee089000008040009040780000c2b300b4
:102d1c0080cf500002003200b0002000000f78007d
:102d2c0000000000020137002e0890000000e000b7
:102d3c001f0032005e019000320798000000eb008b
:102d4c00300f9800110037003e00900080004000ca
:102d5c00803d22000080400090007800e0022000be
:102d6c00808f500006003a0010002000300f9800b1
:102d7c003e0090000000e900300798000600370084
:102d8c003e0090000000e900300798003e009000e3
:102d9c000000e000ecff3c003e0890000000e0006a
:102dac0005003a00de009000310798000200370061
:102dbc0070002000300798006e289000c0589000da
:102dcc00a0c2b30080cf5000590032000040eb008d
:102ddc004047980001003700000000002e089000ca
:102dec000000e000110032004e4090000080fb001b
:102dfc0080004000803d2200008040009000780060
:102e0c00f00f2000808f500005003e004e409000d7
:102e1c008080fb003e009000808f50000300340047
:102e2c00b0002000000f7800410037002e08900001
:102e3c000000e000080032004e4090000080fb00d3
:102e4c0080004000803d220000804000100078008f
:102e5c0020479800060037004e4090000080fb0091
:102e6c00ee08900000804000104178002247980046
:102e7c004e4090000080fb00ee2890007c0040004b
:102e8c006140780030479800be409000a0c2b3006b
:102e9c0080cf500021003200be409000f0c3b30040
:102eac0080cf50000c0032002e4090000080fb00c0
:102ebc00e8f80700000478003e4090000080fb001a
:102ecc00e4f80700800f540003003200b00020002b
:102edc00000f7800160037004e4090000040e800cc
:102eec00404798004e409000e84f5000baff3a001f
:102efc002e0890000000e0000a0032004e409000c6
:102f0c008080fb003e009000808f500007003c004a
:102f1c00b0002000000f7800050037000000000012
:102f2c000300370000000000010037000000000023
:102f3c006e289000c0609000a0c2b30080cf5000fb
:102f4c00760032001e0078000000e00075003a00a8
:102f5c002e0890000000e000150032006e28900052
:102f6c00c060900000c2b30080cf500006003a0051
:102f7c003e089000e10f50006c003a00b0002000b9
:102f8c00000f78006a0037003e0890000000e00057
:102f9c0003003a00b0002000000f780064003700f6
:102fac003e0090000080e8003007980002003700d7
:102fbc00800020003007980080c0b3004047980084
:102fcc0001003700000000002e0890000000e00017
:102fdc000f0032003e00900080004000803d220037
:102fec000080400090007800f00f2000808f50008f
:102ffc0004003e00be0090005e009000808f5000e8
:10300c0003003400b0002000000f780040003700af
:10301c004e4090000080fb00ee2890007c004000a9
:10302c0061407800304798002e0890000000e000c6
:10303c000a0032003e00900080004000803d2200db
:10304c000080400010007800204798003e0090005f
:10305c000000e80030079800080037003e009000a0
:10306c00ee089000008040009040780021479800c6
:10307c003e0090000000e80030079800be40900031
:10308c00a0c2b30080cf500001003a0020003700ee
:10309c00be409000f0c3b30080cf50000c00320053
:1030ac002e4090000080fb006af8070000047800b6
:1030bc003e4090000080fb0066f80700800f540033
:1030cc0003003200b0002000000f78001000370021
:1030dc004e4090000040e800404798004e40900061
:1030ec00eb4f5000b7ff3a002e0890000000e000b4
:1030fc0006003200be0090005e009000808f5000f1
:10310c0002003c00b0002000000f7800000000001e
:10311c000700370000000000050037000000000029
:10312c000300370000000000010037000000000021
:10313c001e0078000000e00040003a002e089000cd
:10314c000000e000030032004e1090000000e80088
:10315c0040179800800220000e004000800078008c
:10316c005e2890003e190700406798002e089000da
:10317c000000e000030032004e1090000000e90057
:10318c00401798005e289000101990003217980094
:10319c00be109000f00320000080600030179800f3
:1031ac007ed890000080fb000000e000030032009d
:1031bc00e10f500007003200230037003e10900052
:1031cc00e80f50001f003a00b0002000000f7800fc
:1031dc001d003700be1090001e1090000080600093
:1031ec000000e00002003200b0002000000f780068
:1031fc002e0890000000e00004003200fe00900059
:10320c005e289000611098000f0037005e28900037
:10321c008000eb00611098000b0037000000eb0001
:10322c00000f98006ed890000004e00006003a00f1
:10323c000000eb00000f78000300370000000000d6
:10324c0001003700000000004e1090000000e80064
:10325c00401798003efa37003dfa37000000000096
:10326c0001003700000000001e0078004f047800b9
:10327c000080fa00000006001000fa0050079800c9
:10328c0061079800624f98000000eb00000f780077
:10329c005e00900090007800110798001e009000ce
:1032ac00306090000004e00003003a007000200041
:1032bc00000f7800890037005e009000b018900075
:1032cc00201890005e019000401998005119980048
:1032dc006e009000100078000000e00009003a0039
:1032ec0012c0b300ee0090005e009000fc100700ce
:1032fc000000e00010003a00b0012000000f780040
:10330c000d0037006e009000100078006f00600018
:10331c000000e0000800320012c0b300ee00900084
:10332c005e009000ee1007000000e00002003a0082
:10333c00b0012000000f7800ee0090005e009000bd
:10334c00c7180700404798004e4090000004e0006a
:10335c0003003200b0002000000f78005f0037003f
:10336c005e0190006000b80070019800010998009f
:10337c005e009000a0009000100090005e01900094
:10338c0030019800410198005e0090008000eb0035
:10339c00510098005e0090008000eb0061009800e6
:1033ac004e409000e14f500003003a00b000200066
:1033bc00000f78002c0037005e009000c0009000d9
:1033cc00300090000001be001e009000c61e0700d9
:1033dc00300798004107980052c8bf000004e00075
:1033ec0005003200d52007000004e0000200320086
:1033fc00900020003a0037005e0190008242880065
:10340c0032458000434580003e009000ce00900085
:10341c00800f5100818f5900130032005468ef0067
:10342c001e0090009080fb00104090000080fb007c
:10343c004800dd0000807000000178003e00900024
:10344c00ce009000a14e07000004e00002003a00fc
:10345c0080002000000f78003e019000ce0190000b
:10346c003245880043458800de009000310890000a
:10347c000020a100b0089800ee48900070c7b3007f
:10348c0080cf500004003200ee48900010c6b3000c
:10349c0080cf500009003a00de0090003108900007
:1034ac000000a000b0089800de00900031089000e9
:1034bc000010a100b008980008003700de00900052
:1034cc00310890000000a100b0089800de009000c8
:1034dc00310890000010a000b00898001e00780081
:1034ec000080fa00000006001a00fa00200f980075
:1034fc00320f9800430f98000040eb00004f9800eb
:10350c002e08900090007800510798005e00900003
:10351c00206090000080fb00e10f50000a00320098
:10352c00e30f500010003a0080ff2f00f1ff200045
:10353c002007980031079800f0ff2f00f1ff2000c2
:10354c00008fbe001000370080ff2000010020001b
:10355c002007980031079800f0ff2f000100200091
:10356c00008fbe000800370080ff2f0001002000f4
:10357c002007980031079800f0ff2f000100200071
:10358c00008fbe00000000002e089000300190005b
:10359c00c001900062079800730798006e019000bc
:1035ac00fe0190005e009000a8280700000f980014
:1035bc00110f98000e0890009e089000be0f50004e
:1035cc00ae8f580003003a0080c0b300004f980043
:1035dc001f0037005e019000c25190008381fb00f8
:1035ec00525290000482fb004822dd00848171005d
:1035fc0003007800e25190008381fb00725190002f
:10360c000281fb004811dd0002817100820078000c
:10361c000e0990009e099000820f5000838f580075
:10362c0002003e00a0c0b300004f98000e099000ad
:10363c009e0990002e009000be009000800f51005b
:10364c00818f590002003900c0c3b300004f9800ad
:10365c002e0890000e0990009e09900032009800f0
:10366c00430098003e089000ce0890006100500086
:10367c00e0805800300f9800410f98003e089000f1
:10368c00ce089000e00f5000e08f5800030032008d
:10369c000e4890000004e000bbff32000e48900082
:1036ac000080fa00000006000600fa0020079800cf
:1036bc000040eb00004f78002e0090008040eb00a3
:1036cc00316098002e00900001b22200f20f200011
:1036dc000281600090417800e0c1610002c171007c
:1036ec0002487800c808de0010419000604161007b
:1036fc008140710011409800d950070010079800c4
:10370c001e009000104078000004e000050032001c
:10371c0060c0b300004f780060c0b3005ae8b70037
:10372c003a0037001e009000900078000010200036
:10373c00008060000000e000250032001e009000b8
:10374c00100090006101b8002e009000f10f2000d5
:10375c0081006100005a900060426200814072005a
:10376c0001589800c810de00105a900060426200a8
:10377c008140720011589800f10f20008180610087
:10378c00205a9000604262008140720021589800db
:10379c00c818de0030599000604161008140710012
:1037ac00315898001e0090009000900000202000de
:1037bc00808f50000600360010c2b300004f780016
:1037cc0010c2b3005ae8b7001e4078001000370052
:1037dc002e00900010000700004f78001e4078006b
:1037ec000004e00009003a002e00900035010700ab
:1037fc00004f78001e4078000004e00003003a00ff
:10380c002e00900011c0b300316098001e4078006b
:10381c000080fa00000006000c00fa005007980027
:10382c000040eb00004f78005e0090009080fb00a1
:10383c00104090000080fb004800dd00008070000c
:10384c00000178006000b800a04d0700e14f500067
:10385c000500320080c0b300004f780080c0b30078
:10386c005ae8b700140137005e0090009080fb000e
:10387c00104090000080fb004800dd0000807000cc
:10388c00200798002e009000e0f8930050c5b3007c
:10389c0080cf500097003a002e009000f0f8930073
:1038ac00a0cab30080cf500092003a005e00900096
:1038bc009080fb00104090000080fb004800dd0071
:1038cc000080700061032000421d070061c4b3003a
:1038dc00814f50003e003a005e0090009080fb004b
:1038ec00104090000080fb004800dd00008070005c
:1038fc0071032000371d070011c4b300814f500025
:10390c0033003a005e0090009080fb001040900065
:10391c000080fb004800dd00008070008103200067
:10392c002c1d070041c5b300814f500028003a0000
:10393c005e0090009080fb00104090000080fb0027
:10394c004800dd000080700091032000211d07005d
:10395c0011c3b300814f50001d003a005e0090006f
:10396c009080fb00104090000080fb004800dd00c0
:10397c000080700061022000161d070091c2b30088
:10398c00814f500012003a005e009000a040900061
:10399c00e0c0600021409800b0409000e0c06000a2
:1039ac0031409800c0409000e0c060004140980059
:1039bc00d0409000e0c06000514098005e00900044
:1039cc0021c0b300216098000040eb00bb00370021
:1039dc005e0090009080fb00104090000080fb0087
:1039ec004800dd000080700021052000f91c070054
:1039fc0061c4b300814f50003e003a005e0090005d
:103a0c009080fb00104090000080fb004800dd001f
:103a1c000080700031052000ee1c070011c4b300bb
:103a2c00814f500033003a005e0090009080fb0004
:103a3c00104090000080fb004800dd00008070000a
:103a4c0041052000e31c070041c5b300814f500025
:103a5c0028003a005e0090009080fb00104090001f
:103a6c000080fb004800dd00008070005105200044
:103a7c00d81c070031c3b300814f50001d003a0021
:103a8c005e0090009080fb00104090000080fb00d6
:103a9c004800dd000080700021042000cd1c0700d0
:103aac0091c2b300814f500012003a005e009000aa
:103abc00a0409000e0c0600021409800b040900011
:103acc00e0c0600031409800c0409000e0c0600051
:103adc0041409800d0409000e0c0600051409800f8
:103aec005e00900031c0b300216098000040eb00f4
:103afc00720037005e0090009080fb001040900038
:103b0c000080fb004800dd0000807000300798004a
:103b1c003e009000e0f8930050c5b30080cf5000f9
:103b2c0005003a003e009000f0f89300a0cab300e4
:103b3c0080cf50000500320040c0b3005ae8b700f7
:103b4c0040c0b300004f78005b0037003e0090008f
:103b5c00e01bb000100798000040eb0010479800e5
:103b6c004e0037001e009000804890008180fb00c2
:103b7c00104a90000482fb004822dd008480700013
:103b8c0001017800a04890008180fb003048900033
:103b9c000080fb004800dd00008070008001780090
:103bac005e009000f10f2000810061002042900027
:103bbc00604262008140720021409800c810de0013
:103bcc0030429000604262008140720031409800a7
:103bdc00f10f200081806100404290006042620041
:103bec008140720041409800c818de00504190009e
:103bfc006041610081407100514098001e009000ae
:103c0c00c0409000014f98000e4890000080fb00cf
:103c1c00ee0f50001b003e00110020000008dd00dc
:103c2c0001052400810060000100e0000b003a0057
:103c3c0001802100810060000100e0000c003a00ce
:103c4c00620060000000e0000e0032005e00900098
:103c5c0011c0b300216098000a0037005e0090008c
:103c6c0021c0b300216098001e407800130037007b
:103c7c005e00900031c0b300216098001e407800b7
:103c8c000e0037001e0090007000400010079800d6
:103c9c001e4090000040e800104798001e40900025
:103cac00e34f5000afff360050c0b3005ae8b700e6
:103cbc0050c0b300004f78001e4078000080fa001e
:103ccc00000006001a00fa00889fbe00400f980002
:103cdc000040eb00404798000000eb0030079800d4
:103cec000000eb00400798004e0890009080fb000d
:103cfc00104090000080fb004800dd000080700048
:103d0c00800178004e099000224290000482fb0052
:103d1c00b24290008582fb00c82add0005027200c9
:103d2c0004007800424290000482fb005241900053
:103d3c000281fb004811dd00020172008200780054
:103d4c0003017800614c0700e14f50000300320082
:103d5c0080c0b30040479800eb0237004e0890003b
:103d6c009080fb00104090000080fb004800dd00bc
:103d7c0000807000500798005e009000e0f89300ff
:103d8c0050c5b30080cf500005003a005e00900093
:103d9c00f0f89300a0cab30080cf500003003200ab
:103dac0030c0b300404798001b0237004e0890000b
:103dbc009080fb00104090000080fb004800dd006c
:103dcc0000807000e10020000a1c070060079800ca
:103ddc004e0890009080fb00104090000080fb008b
:103dec004800dd0000807000d1002000f91b0700a6
:103dfc00ce089000906098004e099000a24190006f
:103e0c008381fb00324290000482fb004822dd00db
:103e1c008481710003007800c24190008381fb0013
:103e2c00524190000281fb004811dd0002817100bb
:103e3c00820078006e0190008001eb0000014100cf
:103e4c00818149004e089000f10f20008100610033
:103e5c0060429000604262008140720061409800b4
:103e6c00c810de0070429000604262008140720017
:103e7c0071409800f10f200081806100004a900091
:103e8c00604262008140720001489800c818de0050
:103e9c001049900060416100814071001148980008
:103eac004e0890009080fb00104090000080fb00ba
:103ebc004800dd000080700001012000c51b0700d8
:103ecc00ce089000806098004e0890009080fb0017
:103edc00104090000080fb004800dd000080700066
:103eec0061012000c31b07006101b8004e0890005f
:103efc00f10f200081006100405a90006042620086
:103f0c008140720041589800c810de00505a900051
:103f1c00604262008140720051589800f10f2000fd
:103f2c0081806100605a90006042620081407200a2
:103f3c0061589800c818de0070599000604161000b
:103f4c0081407100715898004e099000c259900040
:103f5c008381fb00525a90000482fb004822dd0052
:103f6c008481710003007800e25990008381fb008a
:103f7c00725990000281fb004811dd000281710032
:103f8c0082007800e00f5000e08f580020003a00cb
:103f9c004e0890009080fb00104090000080fb00c9
:103fac004800dd000080700041022000ab1b0700c0
:103fbc000001be004e089000f10f2000810061004e
:103fcc00405a900060426200814072004158980053
:103fdc00c810de00505a90006042620081407200ae
:103fec0051589800f10f200081806100605a9000b8
:103ffc00604262008140720061589800c818de006f
:10400c0070599000604161008140710071589800b6
:10401c004e089000e04090008180fb0070419000c1
:10402c000281fb004811dd008280700001027800e3
:10403c00804890008180fb00104890000080fb00bd
:10404c004800dd0000807000800278004e0890006f
:10405c00006090000081fb008001eb004e0b900093
:10406c00c65b90008783fb00565c90000884fb00c5
:10407c004844dd008883730007007800e65b9000fd
:10408c008783fb00765b90000683fb004833dd00e2
:10409c000683730086007800009bb9000603780045
:1040ac00028cb90088037800070343000010b800a5
:1040bc00010343008600780004014000858148001c
:1040cc004e089000f10f200081006100204a900002
:1040dc00604262008140720021489800c810de00e6
:1040ec00304a900060426200814072003148980072
:1040fc00f10f200081806100404a90006042620014
:10410c008140720041489800c818de005049900068
:10411c006041610081407100514898004e08900048
:10412c009080fb00104090000080fb004800dd00f8
:10413c0000807000110120002e1b07008000780009
:10414c004e089000f20f200002816000a0519000f8
:10415c00e0c1610002c1710022509800c808de0065
:10416c0030519000604161008140710031509800e5
:10417c004e0890009080fb00104090000080fb00e7
:10418c004800dd000080700031012000191b070081
:10419c008000eb00008fbe001e00be00e00f500040
:1041ac00e08f580009003a004e0890009080fb0008
:1041bc00104090000080fb004800dd000080700083
:1041cc0001022000251b0700008fbe004e08900046
:1041dc009080fb00104090000080fb004800dd0048
:1041ec0000807000b1002000021b070070079800cf
:1041fc007e0090000000e000050032007e00900080
:10420c0061006000004078000004e0000300320010
:10421c0010c2b30040479800ff0037004e089000d2
:10422c00a05090008180fb00305090000080fb007b
:10423c004800dd0000807000c500dd007e009000ad
:10424c00008040008000e9007e00900000017800b2
:10425c00110009008280d8008000eb00000f98004c
:10426c00110f98006e0090006103b8004e0890008a
:10427c00006090000081fb008001eb004e0a900072
:10428c00c45a90008582fb00545c90000884fb00ab
:10429c004844dd008882720005007800e45a9000e2
:1042ac008582fb00745a90000482fb004822dd00da
:1042bc000482720084007800009ab900040278002d
:1042cc00028cb90088027800050242000010b80088
:1042dc0001024200840078000601400087814800fa
:1042ec000e0890009e089000020040008380480059
:1042fc003e011000ae8118000200be00200f980095
:10430c00310f98004e089000106090000080fb0068
:10431c008000eb000001be002e089000be0890004b
:10432c003df207000001be004e089000f10f200086
:10433c008100610040529000604262008140720036
:10434c0041509800c810de0050529000604262004c
:10435c008140720051509800f10f20008180610063
:10436c00605290006042620081407200615098007f
:10437c00c818de00705190006041610081407100ee
:10438c00715098004e099000c25190008381fb003f
:10439c00525290000482fb004822dd00848171009f
:1043ac0003007800e25190008381fb007251900071
:1043bc000281fb004811dd0002817100820078004f
:1043cc0042ff200003002000820f5000838f580012
:1043dc0004003e004e08900011c0b300216098000c
:1043ec001b0037004e099000c25190008381fb00e6
:1043fc00525290000482fb004822dd00848171003f
:10440c0003007800e25190008381fb007251900010
:10441c000281fb004811dd000281710082007800ee
:10442c0042ff2f0003002000820f5000838f5800a2
:10443c0004003e004e08900021c0b300216098009b
:10444c00030037004e08900031c0b3002160980083
:10445c004e08900020609000e34f500035003a0069
:10446c004e0890009080fb00104090000080fb00f4
:10447c004800dd0000807000c1022000771a0700a0
:10448c00b0428800c14288004e099000a2499000b9
:10449c008381fb00324a90000482fb004822dd003d
:1044ac008481710003007800c24990008381fb0075
:1044bc00524990000281fb004811dd00028171001d
:1044cc00820078000e0990009e09900000014100c6
:1044dc00818149004e089000f10f2000810061009d
:1044ec00604a90006042620081407200614898000e
:1044fc00c810de00704a9000604262008140720079
:10450c0071489800f10f20008180610000529000ea
:10451c00604262008140720001509800c818de00b1
:10452c001051900060416100814071001150980061
:10453c00330037005628ef005828ef004e09900042
:10454c00a24990008381fb00324a90000482fb0058
:10455c004822dd008481710003007800c24990007c
:10456c008381fb00524990000281fb004811dd0061
:10457c0002817100820078004e099000a2519000d7
:10458c008381fb00325190000281fb004811dd0059
:10459c00028171004411de008001eb00000141003a
:1045ac00818149004e089000f10f200081006100cc
:1045bc00604a90006042620081407200614898003d
:1045cc00c810de00704a90006042620081407200a8
:1045dc0071489800f10f200081806100005290001a
:1045ec00604262008140720001509800c818de00e1
:1045fc001051900060416100814071001150980091
:10460c00fe00900000202000808f50000200360039
:10461c0010c2b300404798004e08900020609000f4
:10462c00e34f50000d0032004e4090000004e000bb
:10463c00ae0032005e009000a0c0900090c2b300ab
:10464c0080cf5000050032005e009000a0c09000aa
:10465c0080c2b30080cf5000a6003a005e009000ec
:10466c00b05090008180fb00405090000080fb0017
:10467c004800dd00008070000000e0003a003a00c5
:10468c005e009000407090000004e00036003a009c
:10469c005e009000507090000004e00032003a0080
:1046ac005e009000607090000004e0002e003a0064
:1046bc005e009000707090000004e0002a003a0048
:1046cc005e009000007890000004e00026003a00a4
:1046dc005e009000107890000004e00022003a0088
:1046ec005e009000207890000004e0001e003a006c
:1046fc005e009000307890000004e0001a003a0050
:10470c005e009000407890000004e00016003a0033
:10471c005e009000507890000004e00012003a0017
:10472c005e009000607890000004e0000e003a00fb
:10473c005e009000707890000004e0000a003a00df
:10474c005e009000a0c0900090c2b30080cf5000db
:10475c00070032005e009000a0c0900080c2b30041
:10476c0080cf50000200320030c0b30040479800a8
:10477c004e4090000004e000300032003e009000fb
:10478c000000e0002d003a001000200030079800d7
:10479c004e0890009080fb00104090000080fb00c1
:1047ac004800dd0000807000000278004e09900087
:1047bc00a24190008381fb00b24290008582fb00f5
:1047cc00c82add008581710003007800c241900089
:1047dc008381fb00524190000281fb004811dd00f7
:1047ec0002817100820078005e019000a27190003d
:1047fc008381fb00327190000281fb004811dd00c7
:10480c00028171008001eb000000410081804900b1
:10481c0004017800ad490700e14f5000040032005c
:10482c0080c0b3005ae8b70080c0b3003d00370029
:10483c000040eb00404798002b0037004e409000a2
:10484c000004e0002d0032004e0090000000e0005b
:10485c002c003a0010002000400798004e089000f1
:10486c009080fb00104090000080fb004800dd00b1
:10487c0000807000800178004e0990002242900068
:10488c000482fb00b24290008582fb00c82add0046
:10489c000502720004007800424290000482fb0082
:1048ac00524190000281fb004811dd0002017200b0
:1048bc008200780066004000e08048000301780028
:1048cc0082490700e14f50000400320080c0b30061
:1048dc005ae8b70080c0b300120037000040eb006c
:1048ec00404798000000000023fd37000000000046
:1048fc000500370000000000030037000000000036
:10490c0001003700000000004e4090000004e00061
:10491c0003003200ce409000a3852000814978002e
:10492c004e4090004f04be000080fa0000000600cc
:10493c000600fa00200798006000b800008fbe0047
:10494c002e009000200890008000eb00008fbe002d
:10495c001e00be00c000dd0000002000008fbe0065
:10496c002e009000500890008000eb001e1f70007d
:10497c001e9770001e00be000080fa0000000600aa
:10498c001200fa005007980061079800720798000f
:10499c00030f98006000b800008fbe005e0090000e
:1049ac00ee009000e00f5000e08f5800070032003e
:1049bc007e0190008e099000100020000100200064
:1049cc00800f5100818f590002003e000080eb00e7
:1049dc001b0137007e0090008e0890006101500092
:1049ec00e08158005e009000ee009000800f5100b6
:1049fc00818f5900020031000080eb00100137005c
:104a0c0052c8bf000004e000050032004b1b070039
:104a1c000004e000020032000080eb0008013700c7
:104a2c00022020008000eb0000b222001ef20700e2
:104a3c0000b22200200798005e019000ee01900069
:104a4c0032079800430798003e009000ce0090007b
:104a5c0012ec2300030020006ff007000001be00e1
:104a6c004e18dd00c210de00810070004e10dd001b
:104a7c00008fbe003e009000ce00900012ec230090
:104a8c000300200074f007003007980041079800dd
:104a9c003e009000ce009000f203200003002000a6
:104aac005df007000001be004618dd00ca10de00f4
:104abc00810070004610dd001e1f70001e977000f4
:104acc003e009000ce009000f20320000300200076
:104adc0061f0070030079800410798003e009000f5
:104aec00ce00900061004000e08048001e1f700066
:104afc001e9770001e00be004008de00804078004b
:104b0c00f0cd2200014878001e00be00c809dd006f
:104b1c004800de0000807100c808de00804078008c
:104b2c0000ce2200014878001e00780080407800fa
:104b3c0010ce2200014878007e0190008e09900072
:104b4c005e009000ee009000000151008181590040
:104b5c002e009000f10f20008100610020ca93000c
:104b6c00604262008140720021c89b00c810de00c8
:104b7c0030ca9300604262008140720031c89b00d1
:104b8c00f10f20008180610040ca930060426200f6
:104b9c008140720041c89b00c818de0050c99300c8
:104bac00604161008140710051c89b002e01900052
:104bbc00a2c993008381fb0032ca93000482fb00dc
:104bcc004822dd008481710003007800c2c9930083
:104bdc008381fb0052c993000281fb004811dd0068
:104bec000281710082007800820321000300200002
:104bfc00820f5000838f580004003e002e0090005e
:104c0c0011c0b30021c09b001a0037002e01900088
:104c1c00a2c993008381fb0032ca93000482fb007b
:104c2c004822dd008481710003007800c2c9930022
:104c3c008381fb0052c993000281fb004811dd0007
:104c4c000281710082007800f2d52f00f30320005e
:104c5c00820f5000838f580004003e002e009000fd
:104c6c0061c0b30021c09b00020037000080eb0044
:104c7c00730037002e0090005e019000f10f2000b1
:104c8c008100610060c1930060416100814071004e
:104c9c0061c09b00de009000c808de0070c193006c
:104cac00604161008140710071c09b006e019000f9
:104cbc00f10f20008100610000c993006041610088
:104ccc008140710001c89b00ee009000c808de0016
:104cdc0010c99300604161008140710011c89b00b4
:104cec005e019000ee0190007e0090008e08900016
:104cfc00020040008380480061005000e0805800b2
:104d0c0030079800410798003e009000ce009000bc
:104d1c0012ec230003002000bfef07000001be00cf
:104d2c004e18dd00c210de00810070004e10dd0058
:104d3c00008fbe003e009000ce00900012ec2300cd
:104d4c0003002000c4ef07003007980041079800cb
:104d5c003e009000ce009000f203200003002000e3
:104d6c00adef07000001be004618dd00ca10de00e2
:104d7c00810070004610dd001e1f70001e97700031
:104d8c003e009000ce009000f203200003002000b3
:104d9c00b1ef070030079800410798003e009000e3
:104dac00ce00900061004000e08048001e1f7000a3
:104dbc001e9770001e00be004008de008040780088
:104dcc0030ce2200014878001e00be004809dd00ec
:104ddc004800de0000007100c808de00804078004a
:104dec0040ce2200014878001e00780080407800f8
:104dfc0050ce2200014878002e0090008040eb003d
:104e0c0061789b002e00900051c5b30061f89b00a7
:104e1c002e009000a1cab30071f89b0013c0b30020
:104e2c0002b222006000b800594a0700e14f50005e
:104e3c00020032000080eb00010037000000eb00a4
:104e4c000080fa00000006004e00fa00889fbe00a9
:104e5c0060c7980042279800532798006127980054
:104e6c00200220000e004000000f98005a68ef004e
:104e7c005468ef004e68ef000080eb008080eb0080
:104e8c0010458800214588000080eb008080eb00f5
:104e9c0030458800414588000e08900001b2220080
:104eac00f20f20000281600090417800e0c16100a7
:104ebc0002c1710002487800c808de001041900061
:104ecc00604161008140710011409800614707000a
:104edc00e34a0700100f98001e089000104078005d
:104eec000004e0000400320060c0b3005ae8b700d0
:104efc000080eb000e09370002b222006000b800ff
:104f0c00f24707000004e00004003a00b0c1b3000f
:104f1c005ae8b7000080eb00050937000e08900036
:104f2c009080fb00104090000080fb004800dd00ea
:104f3c0000807000200f98002e089000e0f893007d
:104f4c0050c5b30080cf500090003a002e0890005e
:104f5c00f0f89300a0cab30080cf50008b003a0049
:104f6c000e0890009080fb00104090000080fb0029
:104f7c004800dd00008070006103200095170700d9
:104f8c0061c4b300814f50004d003a000e089000f0
:104f9c009080fb00104090000080fb004800dd007a
:104fac0000807000710320008a17070011c4b30041
:104fbc00814f500042003a000e0890009080fb0098
:104fcc00104090000080fb004800dd000080700065
:104fdc00810320007f17070041c5b300814f5000ab
:104fec0037003a000e0890009080fb0010409000b3
:104ffc000080fb004800dd00008070009103200061
:10500c007417070011c3b300814f50002c003a00f5
:10501c000e0890009080fb00104090000080fb0078
:10502c004800dd0000807000610220006917070055
:10503c0091c2b300814f500021003a000000eb00f8
:10504c00000f78006ec090000000fb000000e00034
:10505c0006003200e10f500042003a00f0c1b300ec
:10506c005ae8b7000080eb00b10837000e0890003a
:10507c00a0409000e0c0600021409800b04090003b
:10508c00e0c0600031409800c0409000e0c060007b
:10509c0041409800d0409000e0c060005140980022
:1050ac000e08900007fb07000004e0002f00320000
:1050bc00b0c1b3005ae8b7000080eb009c08370081
:1050cc0000b22200000f78001e007800e0c09300b0
:1050dc008180fb0070c293000482fb004822dd003b
:1050ec00848070000101780080c893008180fb00ef
:1050fc0010c893000080fb004800dd0000807000a9
:10510c00800178000e089000f10f200081006100f2
:10511c002042900060426200814072002140980061
:10512c00c810de0030429000604262008140720084
:10513c0031409800f10f20008180610040429000c6
:10514c00604262008140720041409800c818de0045
:10515c0050419000604161008140710051409800c5
:10516c0003003700000000000100370000000000c1
:10517c006ec090000000fb000000e0004a05320009
:10518c00e10f5000050032004f05370040c0b3005e
:10519c005ae8b7000080eb00650837001e01780064
:1051ac00a2c993008381fb0032ca93000482fb00e6
:1051bc004822dd008481710003007800c2c993008d
:1051cc008381fb0052c993000281fb004811dd0072
:1051dc000281710082007800300f9800410f980016
:1051ec003e099000ce0990008003210001002000b0
:1051fc00800f5100818f590070003e000e08900006
:10520c0011c0b300216098001e00780011c0b300db
:10521c0021c09b0013c0b30002b222006000b80092
:10522c005b4907000004e00004003a0090c0b300a2
:10523c005ae8b7000080eb003d0837003e099000ab
:10524c00ce0990007002210001002000800f510057
:10525c00818f5900040036000e08900021c0b30065
:10526c0011609800030037000e08900011c0b300c5
:10527c0011609800022020008000eb0000b2220098
:10528c0009f00700a0b5220021c3b3000148780043
:10529c000e089000106090000080fb0000004000a1
:1052ac006101b9003e089000ce0890000200400059
:1052bc00838048001002b1000180b10040079800c3
:1052cc00510798000e089000106090008080fb0041
:1052dc00501520000088b900000078000080e8001c
:1052ec00cf80de00500f9800610f98005e0990008f
:1052fc00ee0990004e009000de009000020040008d
:10530c008380480061005000e08058005e099000e6
:10531c00ee09900040ee07004007980051079800f6
:10532c000e08900021c0b300016098000e08900098
:10533c00a0509000e0c0600021509800b050900048
:10534c00e0c060000114a000315098000e089000dd
:10535c004e019000f10f2000810061004059900037
:10536c00604161008140710041589800ce0090006e
:10537c00c808de0050599000604161008140710006
:10538c00515898005e019000f10f200081006100df
:10539c006059900060416100814071006158980033
:1053ac00de009000c808de0070599000604161007a
:1053bc008140710071589800060137003e09900039
:1053cc00ce099000f0d52f00f1032000800f510082
:1053dc00818f590086003e000e08900021c0b3005a
:1053ec00216098001e00780061c0b30021c09b00b2
:1053fc0013c0b30002b222006000b800e4480700fa
:10540c000004e00004003a0090c0b3005ae8b70072
:10541c000080eb00c60737003e089000ce089000d5
:10542c008021b1000180b10010079800210798007d
:10543c000e08900011c0b300116098000c003700ea
:10544c000e089000106090000040400080407800f2
:10545c000e089000116098001e009000ae009000a5
:10546c008100d1000080d30010079800210798001c
:10547c001e019000ae019000d0fe2f000100200014
:10548c00800f5100818f5900edff3e000e089000f7
:10549c009060900000c8b30080cf5000040036002c
:1054ac0040c0b3005ae8b7000080eb00a0073700fb
:1054bc00022020008000eb0000b222007aef0700ef
:1054cc00a0b5220061c3b300014878000e0890001b
:1054dc00106090000080fb00000040006101b900ea
:1054ec003e089000ce0890000200400083804800e7
:1054fc001002b1000180b1004007980051079800dc
:10550c000e089000106090000080fb004800dd0049
:10551c000080e800cf80de00500f9800610f9800eb
:10552c005e099000ee0990004e009000de009000a5
:10553c00020040008380480061005000e080580069
:10554c005e099000ee099000b3ed0700400798004b
:10555c00510798000e08900021c0b300016098001c
:10556c000e089000a0509000e0c060002150980000
:10557c00b0509000e0c060000114a00031509800c1
:10558c000e0890004e019000f10f20008100610088
:10559c004059900060416100814071004158980071
:1055ac00ce009000c808de005059900060416100a8
:1055bc0081407100515898005e019000f10f20005d
:1055cc008100610060599000604161008140710070
:1055dc0061589800de009000c808de0070599000f9
:1055ec00604161008140710071589800790037006a
:1055fc000e08900031c0b300216098001e007800a6
:10560c00b1c0b30021c09b0013c0b30002b2220092
:10561c006000b8005e4807000004e00004003a0097
:10562c0090c0b3005ae8b7000080eb004007370089
:10563c003e099000ce0990001207980023079800ad
:10564c000e08900011c0b300116098000c003700d8
:10565c000e089000106090000040400080407800e0
:10566c000e089000116098001e009000ae00900093
:10567c008100d1000080d30010079800210798000a
:10568c001e019000ae019000e0ff2b00f103200002
:10569c00800f5100818f5900edff3e000e089000e5
:1056ac009060900000c8b30080cf5000040036001a
:1056bc0040c0b3005ae8b7000080eb001c0737006d
:1056cc00022020008000eb0000b22200f6ee070062
:1056dc003e089000ce0890000002b1000180b1009d
:1056ec0040079800510798000e0890001060900039
:1056fc000080fb004700dd000000e800cf80de00ea
:10570c00500f9800610f98005e099000ee09900010
:10571c004e009000de0090000200400083804800a4
:10572c0061005000e08058005e099000ee09900086
:10573c0039ed070040079800510798000e089000bb
:10574c0021c0b300016098000e089000a05090009a
:10575c00e0c0600021509800b0509000e0c06000a4
:10576c000114a000315098000e0890004e019000da
:10577c00f10f2000810061004059900060416100f0
:10578c008140710041589800ce009000c808de009e
:10579c00505990006041610081407100515898004f
:1057ac005e019000f10f20008100610060599000b3
:1057bc00604161008140710061589800de009000ea
:1057cc00c808de0070599000604161008140710092
:1057dc007158980000b22200b1ceb3000148780095
:1057ec0010b22200c1c3b3000148780020b22200dd
:1057fc0001c9b3000148780030b22200d1c4b30013
:10580c000148780040b2220031c4b300014878004e
:10581c0050b2220081c4b3000148780060b222006b
:10582c0001c5b3000148780070b2220001c2b30078
:10583c000148780080b2220061c4b30001487800ae
:10584c0090b2220011c4b30001487800a0b222002b
:10585c0041c5b30001487800b0b222008040eb0093
:10586c0001487800c0b2220021c0b3000148780082
:10587c000e08900090609000d0b222000148780091
:10588c000e08900020609000e14f500004003200a0
:10589c000e08900020609000e24f500062013a0028
:1058ac00e0b2220081c0b30001487800f0b22200bf
:1058bc008040eb00014878000e099000a241900056
:1058cc008381fb00324290000482fb004822dd0001
:1058dc008481710003007800c24190008381fb0039
:1058ec00524190000281fb004811dd0002817100e1
:1058fc008200780068014000e08148000e089000aa
:10590c00f10f200081006100604290006042620053
:10591c008140720061409800c810de007042900017
:10592c00604262008140720071409800f10f2000cb
:10593c0081806100004a90006042620081407200e8
:10594c0001489800c818de001049900060416100c1
:10595c00814071001148980000b3220021c0b300af
:10596c000148780010b322008040eb000148780019
:10597c0020b3220021c0b3000148780030b32200cc
:10598c008040eb000148780040b322008040eb00df
:10599c000148780050b3220081cfb3000148780051
:1059ac004e0090008040780060b3220001487800df
:1059bc004e009000de009000c809dd004800de00bb
:1059cc0000807100c808de008040780070b32200af
:1059dc000148780080b32200f1c3b300014878007d
:1059ec0090b322008040eb0001487800a0b3220065
:1059fc0080c0eb0001487800b0b322008040eb007f
:105a0c00014878000e099000a24190008381fb00b0
:105a1c00324290000482fb004822dd008481710038
:105a2c0003007800c24190008381fb00524190003a
:105a3c000281fb004811dd000281710082007800b8
:105a4c0080407800c0b32200014878000e09900015
:105a5c00a24190008381fb00324290000482fb0043
:105a6c004822dd008481710003007800c24190005f
:105a7c008381fb00524190000281fb004811dd0044
:105a8c0002817100820078004809dd004800de00c8
:105a9c0000007100c808de0080407800d0b32200fe
:105aac00014878000e099000a24190008381fb0010
