:020000040000fa
:080000000002040000000000f2
:020000040000fa
:10000800ec040000ec040000ec040000ec04000028
:10001800ec040000ec040000ec040000ec04000018
:10002800ec040000ec040000ec040000ec04000008
:10003800ec040000ec040000ec0400008a620100fb
:10004800ec040000ec040000ec040000a47f0100b4
:10005800e67f0100ec040000ec040000ec04000062
:10006800ec040000ec040000ec0400001a9e0100ff
:10007800ec040000ec040000ec040000ec040000b8
:10008800ec040000ec040000ec0400008a0d010000
:10009800ae9e0100ec0400004e8501009085010031
:1000a800ec040000ec040000ec040000ec04000088
:1000b800ec040000ec040000ec040000ec04000078
:1000c800ec040000ec040000ec040000ec04000068
:1000d800ec040000ec040000ec040000ec04000058
:1000e800ec040000ec040000ec040000ec04000048
:1000f800ec040000ec040000ec040000ec04000038
:10010800ec040000ec040000ec040000ec04000027
:10011800ec040000ec040000bc0d0100ec0400003d
:10012800ec040000ec040000ec040000ec04000007
:10013800ec040000ec040000ec040000ec040000f7
:10014800ec040000ec040000ec040000ec040000e7
:10015800ec040000ec040000ec040000ec040000d7
:10016800ec040000ec0400007a820100bc8201006b
:10017800ec040000ec040000fa250100ec04000087
:10018800ec040000ec040000ec040000ec040000a7
:10019800ec040000ec040000ec040000ec04000097
:1001a800ec040000ec040000ec040000ec04000087
:1001b800ec040000ec040000ec040000ec04000077
:1001c800ec040000ec040000ec040000ec04000067
:1001d800ec040000ec040000ec040000ec04000057
:1001e800ec040000ec040000ec040000ec04000047
:0801f800ec040000ec0400001f
:020000040000fa
:10020800ec040000ec040000ec040000ec04000026
:10021800ec040000ec040000ec040000ec04000016
:10022800ec040000ec040000ec040000ec04000006
:10023800ec040000ec040000ec0400008a620100f9
:10024800ec040000ec040000ec040000a47f0100b2
:10025800e67f0100ec040000ec040000ec04000060
:10026800ec040000ec040000ec0400001a9e0100fd
:10027800ec040000ec040000ec040000ec040000b6
:10028800ec040000ec040000ec0400008a0d0100fe
:10029800ae9e0100ec0400004e850100908501002f
:1002a800ec040000ec040000ec040000ec04000086
:1002b800ec040000ec040000ec040000ec04000076
:1002c800ec040000ec040000ec040000ec04000066
:1002d800ec040000ec040000ec040000ec04000056
:1002e800ec040000ec040000ec040000ec04000046
:1002f800ec040000ec040000ec040000ec04000036
:10030800ec040000ec040000ec040000ec04000025
:10031800ec040000ec040000bc0d0100ec0400003b
:10032800ec040000ec040000ec040000ec04000005
:10033800ec040000ec040000ec040000ec040000f5
:10034800ec040000ec040000ec040000ec040000e5
:10035800ec040000ec040000ec040000ec040000d5
:10036800ec040000ec0400007a820100bc82010069
:10037800ec040000ec040000fa250100ec04000085
:10038800ec040000ec040000ec040000ec040000a5
:10039800ec040000ec040000ec040000ec04000095
:1003a800ec040000ec040000ec040000ec04000085
:1003b800ec040000ec040000ec040000ec04000075
:1003c800ec040000ec040000ec040000ec04000065
:1003d800ec040000ec040000ec040000ec04000055
:1003e800ec040000ec040000ec040000ec04000045
:0803f800ec040000ec0400001d
:020000040000fa
:10040000effa23000e7f24000e0188000000000098
:10041000000020000000e000020032000001200087
:10042000200288000c00070040c2260011002000b6
:1004300011000700000020000000e0000200320070
:100440000000020000000000a4a002000100000063
:100450000040da000000fe004440a900a082200015
:100460000000e0000300320000002000a00188002e
:100470004440a80000000600910188008000780038
:100480000000eb0015003700e280400032a0b4000d
:100490009101ba00e280400032a0b4009102ba009b
:1004a000e280400032a0b4000002eb00472bde00e7
:1004b000f507b200602ce10004003a000059eb009f
:1004c0008301e900fdff3e00040037006128e100e0
:1004d000010032000082eb000b00070011c3ba00dc
:1004e0001101ba000604e00003003a000200e00037
:1004f000e5ff3a0000000600f607b200960188000a
:1005000082007800f5ff37003159ba008301e90015
:100510000c0032002159ba008301e90008003200c2
:100520000400e00003003a00e280400032a0b40082
:10053000f5ff370011d9ba008301e900faff3a004c
:100540008100e800e180400032a0b4000000060015
:10055000c29d040001000000d69d040001000000bf
:10056000969e0400010000008a9e04000100000025
:100570007a9e040001000000f06604000100000003
:10058000da66040001000000d066040001000000eb
:10059000c66604000100000042670400010000007c
:1005a00082a0040001000000ce9f040001000000b2
:1005b0002aa0040001000000ee9f040001000000da
:1005c00092a00400010000001ca004000100000033
:1005d0000ea00400010000009ea104000100000024
:1005e00068a10400010000008ea1040001000000c9
:1005f000d68c040001000000ac8c04000100000057
:10060000f88c040001000000128d040001000000bd
:10061000488d0400010000008e8d040001000000e0
:10062000648d040001000000b08d04000100000092
:10063000ca8d040001000000008e040001000000cb
:10064000468e0400010000001c8e04000100000022
:10065000688e040001000000828e0400010000008a
:10066000b88e040001000000d69c040001000000c8
:10067000809c040001000000789d0400010000003f
:10068000209d040001000000baa504000100000044
:10069000369f040001000000629f0400010000007a
:1006a000269f040001000000ec9e040001000000f1
:1006b0000c9f040001000000169f040001000000d0
:1006c000209f040001000000b29f04000100000010
:1006d000be9f040001000000aa9f0400010000006a
:1006e000729f040001000000909f040001000000c0
:1006f0009a9f040001000000a49f04000100000074
:100700002c960400010000004a960400010000003d
:100710006a960400010000008a96040001000000af
:10072000aa960400010000000297040001000000e6
:100730005a97040001000000b29704000100000075
:100740000a98040001000000d4a404000100000085
:1007500046a50400010000005ea3040001000000a3
:1007600092a304000100000088a30400010000001f
:1007700044490400010000001c4204000100000084
:100780001442040001000000fe41040001000000ca
:10079000624304000100000038480400010000002a
:1007a000dc470400010000001e9604000100000068
:1007b000b629040001000000a8290400010000007f
:1007c0001c940400010000006a9504000100000070
:1007d0002c76040001000000749504000100000064
:1007e0009495040001000000b09504000100000091
:1007f000da95040001000000ee95040001000000fd
:10080000100e040001000000a61404000100000006
:100810000c15040001000000740e0400010000002b
:10082000ce11040001000000341304000100000098
:1008300098120400010000004614040001000000aa
:10084000f81104000100000048120400010000003b
:100850004c150400010000008a8004000100000023
:10086000a88004000100000068810400010000006d
:1008700096810400010000006a7f0400010000006e
:100880001c8004000100000012810400010000002f
:10089000ca7e04000100000034860400010000004c
:1008a00052860400010000001287040001000000cd
:1008b00040870400010000001485040001000000ce
:1008c000c685040001000000bc8604000100000091
:1008d0007684040001000000608304000100000031
:1008e0007e830400010000003e840400010000003b
:1008f0006c8404000100000040820400010000003c
:10090000f282040001000000e883040001000000fe
:10091000a081040001000000ca6b04000100000077
:10092000b46b040001000000aa6b04000100000089
:10093000a06b0400010000001c6c0400010000001a
:10094000e04d040001000000e2a3040001000000eb
:10095000eca30400010000003ca40400010000001e
:1009600046a40400010000002e79040001000000ec
:100970008679040001000000ee7804000100000008
:100980004e790400010000000e790400010000000f
:100990006a790400010000008c7b04000100000063
:1009a00082a2040001000000a41304000000000063
:1009b0006818040000000000221a04000000000073
:1009c000d422040000000000a82e04000000000053
:1009d00000000400000000000040da000000fe00fb
:1009e0000a00fa0011002000b1bf9f00c0bf9f00a5
:1009f0006a805700b01b07004fb897000080fa00cc
:100a0000000006000a00fa00e20f500020003e003d
:100a100050ed8100e10f50000600320080232000dd
:100a20004523200023232000042320000000e000b1
:100a300004003a00802220004522200023222000ca
:100a400004222000060028001403630003003a007b
:100a50000608780000002800140a700013a8a300fc
:100a600001003a0013a0a000020078000500370042
:100a70001388a300feff32003102fb00840a7800d5
:100a80000000e9000000e000f9ff3a00080037002c
:100a900033002000b3bf9f00c0bf9f00d1bf9f00a5
:100aa000e2bf9f006a805700851b07006fb997005f
:100ab000020078000080fa00000006000a00fa0038
:100ac00051002000b1bf9f00c0bf9f006a80570047
:100ad0007d1b07005fb897000080fa000000060049
:100ae000889fbe008004780060ed81000000e00077
:100af00004003a000e0007000084eb000000e00054
:100b00000800350068ed81000900e00005003200b2
:100b100009004400060007000000e00001003d005d
:100b20000084eb00080078004f04be0000000600bf
:100b3000800078000100e00003003a00e0da2300c2
:100b400060ed8900000005000080eb00e2fa230060
:100b5000828f500002003e0061ed89000000eb0032
:100b600000000600839f68000100e00002003d00d5
:100b700060001000e08018000300e00002003d006b
:100b800060011100e0811900e30207004f00e0005e
:100b900002003b0060001000e0801800000006002a
:100ba0001400200013053700f4ff2f001105370053
:100bb0000001be00240007000470a70003f0a1009c
:100bc0006509b100160032000d0035006828e1000b
:100bd00006003500f0ff2f00f1ff27000300e000c2
:100be00013003b0001002800000005000000400049
:100bf000818048008502e900fcff3a0008003700c8
:100c0000f88f420002003c008000eb00000005006d
:100c10008100d1000080d3008502e800fcff3a008b
:100c20000300e00002003b0060001000e0801800bc
:100c3000000006004f89de008201780008053700b9
:100c40006011b80016053700c70ade00f107b200d0
:100c5000f50fb20008003200e1cf4200020032007e
:100c60000170a00024000500810f70000100320017
:100c70000408050044000500810f700002003a00de
:100c8000140005008502e9000000400081c0480012
:100c9000fcff3b000170a00024000500889fbe00ff
:100ca0008a9fbe0030044200b0844a0030054b00e9
:100cb00090854b006000b1000898be000a90be000d
:100cc0000440e10005c8e10006d0e10007d8e100da
:100cd00002003100680040001008e8004f05be0027
:100ce0004f04be0000000600889fbe008a9fbe0021
:100cf0003004be002005be000418540005985c00b6
:100d000006185d0007985d00110020000440e10016
:100d100005c8e10006d0e10007d8e1000100390074
:100d20008000eb00108810004f05be004f04be008d
:100d3000000006001200fa00889fbe008a9fbe00d5
:100d40008c9fbe00e0b79f00f1b79f0082bf9f005d
:100d500093bf9f000605be000404be000000eb0028
:100d6000d0b79f00c0b79f00b0b79f00a0b79f004b
:100d700090b79f000006eb005fb19700cfb09700df
:100d8000820141003fb097000200e00004003d00f6
:100d9000370007007e805700c0ff070003003700c0
:100da000330007007e805700cfff0700dfb69700b3
:100db0000d00e0000c0035006fb29700ffb2970005
:100dc0000fbb97009fbb9700100020000100200080
:100dd0006011b80000027200818272000203730089
:100de000838373001b0007000c06e8000104200049
:100df000810f5600e0ff3a000d00e00004003d00c6
:100e00000802be000a03be007e805700a3ff070051
:100e10005fa897000000e00005003a001fb29700ad
:100e2000afb297003fb39700cfb397000900070018
:100e30006fb09700ffb097000fb997009fb9970068
:100e40004f06be004f05be004f04be000080fa00f2
:100e5000000006000100070000000600a4b79f0084
:100e6000b5b79f00c6b79f00d7b79f000000060028
:100e70004f09de0082817100b3b79f004f01de0091
:100e80008180400082807000a1b79f008fb09700e2
:100e90004f09de00000040000200700090b79f0084
:100ea0007fa897004f01de008180400082807000a3
:100eb00081b79f000d0007004f3ade0000004000a0
:100ec00004007000f0af9f00080007000402420019
:100ed00085824a0006034b0087834b00dfff070033
:100ee0000802be000a03be00000006002fb29700f1
:100ef000bfb297004fb39700dfb397000000060022
:100f0000881f780018002000881f780089ff0700dc
:100f10008f87e9004f04780000000600801feb0077
:100f200084ff07008f87e90000000600889fbe004d
:100f30008a9fbe00e00f5000e08f5800e00f59007c
:100f4000e08f59000c003d006044b8006055b800c7
:100f50000000540081805c0002015d0083815d001f
:100f6000180020001500070008003d0018000700c9
:100f70000004eb00050037000004eb000f00070041
:100f800002003d001200070018002000dcff0700ef
:100f90000800e000060032006022b8006033b800ac
:100fa0000000520081805a0002015b0083815b00d7
:100fb0004f05be004f04be0000000600e00f5200c7
:100fc000e08f5a00e00f5b00e08f5b00000006003e
:100fd0006044b8006055b8000402540085825c008b
:100fe00006035d0087835d0000000600889fbe0049
:100ff0008a9fbe008c1f7800e00f5000e08f5800e1
:10100000e00f5900e08f59000d003d006044b8002a
:101010006055b8000000540081805c0002015d0052
:1010200083815d001c0020000820e10009a8e10088
:101030000ab0e1000bb8e1000d003d0008003700e8
:101040000006eb00e00f5200e08f5a00e00f5b005b
:10105000e08f5b0006003d006044b8006055b800ba
:101060000402540085825c0006035d0087835d00f6
:10107000aaff07000c00e000060032006022b80062
:101080006033b8000000520081805a0002015b000a
:1010900083815b004f0678004f05be004f04be0001
:1010a00000000600889fbe008a9fbe008c1f78004b
:1010b0000006eb00e00f5000e08f5800e00f5900f1
:1010c000e08f590007003d006044b8006055b8004b
:1010d0000000540081805c0002015d0083815d009e
:1010e0001c002000e00f5200e08f5a00e00f5b0070
:1010f000e08f5b0007003d006044b8006055b80019
:101100000402540085825c0006035d0087835d0055
:101110000c00a2003f0407000c00e00006003200b3
:101120006022b8006033b8000000520081805a008d
:1011300002015b0083815b004f0678004f05be0013
:101140004f04be000000060007f827000783610077
:101150000638e10004003a00f707200087836100a9
:101160008703710001003a0003f0a200889fbe00cf
:101170008a9fbe008c9fbe00470ade000480a1004b
:10118000c71ade000580a10007002800078560005f
:1011900087856100f70f20000720e1009e003200e4
:1011a0000728e1009c003200010678000400e000fe
:1011b000b4003200f7072000878060000170a000b3
:1011c0000500e000c0003200f707200087816100c1
:1011d0000370a000050652000f003a000b50e1001a
:1011e0000b0032000308e10002003a000200e100b7
:1011f0007e00320002045000838458000400310055
:101200000001fd008101fd008402fd008a05fd0052
:101210006044b800210037000520e10005003d00d2
:101220000001fd008101fd008402fd008a05fd0032
:10123000050652007a60e100050035000170a1004a
:101240004722dd00848070008a80700063003700d0
:101250006044b800ef02660007ff2f000706660033
:101260000500e00006003400f08312008714dd0062
:101270000511de00071bdd00060171008519de0087
:101280007060e100050035000904780082047800f0
:10129000030178008001eb00700656000b50e1005e
:1012a00003003a0002004000838048000400370039
:1012b00060041400e0841c00020058008380580081
:1012c0000188a300060032008100d1000080d30015
:1012d0008984d3000884d3000402e8002700370083
:1012e0000178a30025003a000100e000030032006d
:1012f0008186cf00698656000a0037008c002000e6
:101300000000e00004003a0009007800880478003a
:101310000004eb00700252008086cf000d064600ec
:101320000c06e9007060e1000600350080007800de
:1013300009007800880478000004eb00700656006d
:10134000700252000c00e0000c0034008c08dd003c
:10135000f00316000703de00868070000c00dd003d
:10136000074bde00060070008c4cdd000743de00fa
:10137000868474000c44dd000c0252006120e10000
:1013800020003500610160000700280087816400ab
:10139000f7ff270087836400070374000300e00061
:1013a0000600320082037300040032000000e800ef
:1013b000e08048000188a3000e003a00f70f2000eb
:1013c0000720e1004a003d000170a1004722dd0036
:1013d000810072008a8070000000be004f06be00cf
:1013e0004f05be004f04be00000006006000b800bc
:1013f000faff37008100d1000080d3000402e8002a
:10140000eeff370004017800890174007c020700b8
:101410008a807000f1ff3700a00307000702780000
:101420000001fd008101fd009c0307008702780098
:10143000850372000778a300040032000001fd005c
:101440008101fd0032020700e4ff370085036200de
:101450000768a300080032000b50e10003003200cf
:10146000f0ff2f00f1ff2700dcff37000001fd0037
:101470008101fd00d9ff37000468a300d7ff3200c7
:10148000faff3700f8ff2700888360000b003a005e
:101490000000e00009003a008303640082837300c7
:1014a000020032000200be00ccff37000b50e1000a
:1014b000ceff3a000200be00c8ff37001400200033
:1014c000810064003eff3700f8ff27008883610039
:1014d00004003a000200e00002003a008c007800ac
:1014e000beff3700150020008301640039ff37007c
:1014f00001f827000000200081007500b7ff3700c9
:10150000038368000700280007036300470ade0022
:101510000480a100c71ade000580a100f70f20009b
:101520000720e100420032000728e10040003200bd
:10153000889fbe008a9fbe008c1f7800f107b20012
:10154000f307b2000400e000640032000170a00064
:101550000500e000680032000370a000850542002d
:10156000eb07b1000204b8000302b8008484440011
:1015700060854a00020ab800848444000a854a0053
:10158000030ab80004054500040033000804d00035
:101590008984d2000a85d2008b05e9006158e100f8
:1015a0003d00350002102000090161000308200001
:1015b00089816100f7072000878364000886730033
:1015c000c84cde00c853dd00878474004855de0037
:1015d0000300e000060032008203760004003200bf
:1015e0008904e80060054d000a88a3000c003a0059
:1015f000f70f20000758e10044003d000a70a100e9
:10160000c75ddd000a8575008a0073000900780057
:101610004f0678004f05be004f04be0000000600d4
:101620000a05d1008984d3008b05e800f0ff37005c
:10163000881f780006047800180307000702780066
:101640000001fd008101fd001403070087027800fe
:10165000850372000778a300050032000001fd0039
:101660008101fd00aa0107004f0478000000060078
:10167000850372000748a30003003200f0ff2f002b
:10168000f1ff2700f8ff37000000200001f82700d5
:1016900088807000f4ff3700880178004848dd003a
:1016a000808171004848de00c850dd0001007000f4
:1016b000c850de00060478000b017800d001070056
:1016c00088807000d2ff37000500e000050032007e
:1016d00017002000800007009dff37008103700085
:1016e000f9ff3a00860078004f0678004f05be00eb
:1016f0004f04be000000050083037100f9ff3200b3
:10170000270020007400070094ff370001f827002d
:1017100086807000f4ff3700020250008382580078
:10172000610039000303710062003200050372009a
:10173000590032000300e0005500330017003a0062
:101740000100e0004b0032000208e1000600310019
:10175000110009004288d800010178008001eb00e7
:101760008000eb00000006006110e100550032002f
:101770000002be00110009008280d80080027800bb
:1017800004007800110009004288d80001017800a7
:101790008001eb008500780000000600889fbe00f5
:1017a0008a9fbe008c9fbe000386cf000c06e90016
:1017b0008c1f78008c19dd00f00216000512de0087
:1017c000848171000c11dd000003be008004eb0079
:1017d000053cde008c3bdd000532de0084837300b7
:1017e0000c33dd0007007800880078001100090044
:1017f0004388d8000202b8000306b8008c82420079
:1018000060854e008005eb000402530085825b007a
:101810000a055c008b855c000b0033008000eb0048
:101820004f0678000c21de00700516000a2ddd0041
:101830000a0171008c29de004f06be004f05be0074
:101840004f04be00000006000202420083824a00ec
:1018500060054d00e0854d000000e9000b00e00050
:10186000eeff3d000202420083824a000000e900d0
:10187000eaff37000000e00012003200110009000a
:101880000280d800010178008000eb000000060013
:101890000401be00010037006011b80010002000f4
:1018a0008000eb00000006000001be006000b800f0
:1018b000000006000001be00f0ff2f00f1ff2f0026
:1018c000000006006011b8000000060092ff07004b
:1018d0000200be0000000600889fbe000004eb006e
:1018e0006138e10016003a000100e00008003a000b
:1018f000c800de004800dd00880020000100e00094
:1019000003003a00c800de004800dd00680444001f
:101910008184cf00e9845400060034008908dd008a
:10192000f08314008703de00878070000900dd006b
:1019300009044400610214004f04be0000000600c8
:101940000300e00008003a00c811de004811dd0085
:10195000880020000300e00003003a00c811de0008
:101960004811dd00680444008384cf00e9845400fa
:10197000060034008919dd00f08314008713de00af
:10198000878171000911dd0009044400e10214009f
:10199000e9ff3700889fbe008a9fbe008c9fbe0073
:1019a0001b0020000202be00058668000600280019
:1019b000060666004709de00f20fb2008200320020
:1019c0000243e80080003200c729de00f30fb200b6
:1019d0007d0032000343e8007b003200f107b200d3
:1019e0000170a000f507b2000570a000c708dd0077
:1019f0004903de00868070004700dd00c72add0055
:101a00004923de00868272004722dd000305510073
:101a1000040350008583580003003100000040009b
:101a2000818048000a05e9008c1f78008a9fbe006b
:101a300004005000858058000402420085824a005c
:101a400000004000818048000005eb000004be005b
:101a50006033b8000406be000d48e10056003100b6
:101a6000110009004dccd8000c01b8000d02b800df
:101a70008481410060824a008283530003045c0039
:101a800084845c0060055d000a00e00025003a00e7
:101a9000800578000d40e1004900310088007800a1
:101aa00007007800110009004d88d8000c01b8002b
:101ab0000d02b8008481410060824a006003110079
:101ac00083835b0004045c00e0845c000900e000a8
:101ad00021003a004f01be000300e0002b0032005d
:101ae000e3016000070673008c8171000100320081
:101af000640070004200de004e5edd000c007000ed
:101b0000c258de0001e0a000e7000700cf01780026
:101b1000818071004f06be004f05be004f04be001d
:101b2000000006008c8343000d044c00e0844c0050
:101b300060054d000000e9000a00e000d4ff32001b
:101b40008c8343000d044c00e0844c0060054d0084
:101b50000000e900ceff37000c0343008d834b00eb
:101b600060044c00e0844c000000e9000900e00043
:101b7000d8ff32000c0343008d834b0060044c00ff
:101b8000e0844c000000e900d2ff37004200de0094
:101b90004e5edd000c007000c258de0001e0a000c7
:101ba000cf0178000300e000daff3200600010008f
:101bb000e0801800d7ff3700f0ff2f00aaff3700a2
:101bc000f0ff2f00b9ff37000404be00b301070087
:101bd000870678000004fd008104fd00af010700c6
:101be000078366000678a300030032000960a7009f
:101bf0000800be002c0037000d78a3000200320060
:101c00000800be00280037000778a30026003a002d
:101c100001f0a10009f0a1000668a3000300320052
:101c2000f1ff2700f0ff2f00baff37000d68a30077
:101c3000030032000800be008c807000b5ff370042
:101c40000768a30007003a000648a300030032001b
:101c5000f1ff2700f0ff2f00aeff37000d48a30073
:101c6000030032006000b8008c807000a9ff3700cc
:101c70000748a3000400320001f8270000002000fc
:101c80008c807000a3ff37002a0007000004fd00cd
:101c90008104fd0002057800260007000802be004e
:101ca0008a01780059ff37000160a000120220006d
:101cb0000240880097ff37000100e0001200320068
:101cc0000500e00010003200889fbe008a9fbe0021
:101cd0008c9fbe000006eb0001f8a3000300320059
:101ce00060001000e08018000cf0a00005f8a300d0
:101cf0000300320060021200e0821a000cf0a20021
:101d00008005eb0041ff37006000b80002000500cd
:101d10000478a300040032000578a3000300320019
:101d20000168a30001003a000200be000160a000ab
:101d3000000006004f0ade004709de00f107b2008e
:101d4000f20fb2000b003200f207b1000170a000e8
:101d5000c708dd00c901de00838070004700dd0098
:101d60000400a6000000060060001000e0801800db
:101d700000000600810f700001003a00000006001c
:101d80008182cf000500e00010003e008082cf007d
:101d9000ee8242007028e1000400390007003e0096
:101da000800078000000eb000e0037007083120006
:101db0008600de000500dd000a0037007083520057
:101dc0008600dd000000eb0006003700e2825200d2
:101dd0008508dd00708312000603de008680700037
:101de0000500dd007507b0000501ea000400a6004b
:101df0000000060060001000e080180000000600ef
:101e00000100e00026003200610111007810e100bd
:101e100023003c006022b8007010e100040035008f
:101e200080027800010078008000eb007001510012
:101e30000200e0000900340070031100062add00f2
:101e4000822ade008603dd00878272000200de0047
:101e5000860bdd00070070008208de0084817100bf
:101e6000f4ff2700048262008481710004002800ce
:101e7000848262006102600005f0a6000000060096
:101e800004827100070032000000e800e080480092
:101e9000000006000002be006000b800efff37003f
:101ea0006000b800000006008101700027003200c9
:101eb0008002eb0001f8a300030032006000100074
:101ec000e080180015002000f40720000202420004
:101ed00020003400f7032000870360000604200080
:101ee0000003630002082000000161004700de00db
:101ef000c909dd0000807100c708de000600e000af
:101f00000800320087037100060032001000b000a4
:101f10000180b0000188a30002003200c108de0089
:101f20000402e800f107b200f30f20000320e100f3
:101f300003003d004722dd008100720029003700c8
:101f400001f827000000eb00260037006000b80011
:101f500000000600680212007f20e1000200340049
:101f60006000b8001f0037006011b8007020e10069
:101f70000400350080017800010078008000eb004b
:101f8000700252000400e00009003400f003120067
:101f90000719dd008419de000703dd00868171006a
:101fa0000400de00070bdd00060070008408de0080
:101fb000f7ff270083836300870371000600280072
:101fc00003036300070032000700e00003003a004b
:101fd0006101600002817300020032001000b00055
:101fe0000180b0000500a6000000060001f0a0007e
:101ff00000000600889fbe008a9fbe00841f7800f4
:102000007c0007004f00780011003300f0ff2f0024
:10201000838f6c0006003b00040565000a00a700e2
:102020000800370009f0a600100020000800370063
:10203000820f5400838f5c000300390010002000e1
:1020400001003e000000200009f0a7000000ea00a7
:102050004f05be004f04be000000e0000000060077
:10206000881f7800030478000300e00007003d00ab
:1020700060001000e080180060011900e081190084
:1020800002003b0001f02d000300370004000700b0
:1020900008f0a70001f0a0004f047800000006003f
:1020a000889fbe008a9fbe000082700004027100fb
:1020b00004827100260032000004be000200be004f
:1020c0006011b8006b092000950220000182cf004a
:1020d0000a0039000541b1000082cf000700390035
:1020e0000541b1000982cf00040039000541b1006b
:1020f0000882cf00010039000541b10005425200bd
:10210000120032000a003b0082817100610164000c
:102110008100d1000080d3008984d3000884d300db
:102120008b05e8000442e800f7ff3a00070037009b
:102130000804440089844c00000048008180480065
:102140008b05e9000442e900f9ff3a0003000700ab
:102150004f05be004f04be000000060081002000b5
:10216000618055000b003d000b00200061fe2f0038
:102170000100e1001d0034008281710061016400f2
:102180008904d1000884d3000000e800faff3a0077
:102190007100200061006400030070000200600014
:1021a0000900320061044400e0844c000988a50065
:1021b000050032008b05e8006808e10002003a00e3
:1021c0008904d1000884d300f20f20000258e100f6
:1021d00005003d00c75ddd00f907b200898075008c
:1021e00008007800000006000bf827008b0078003c
:1021f000000005000004be0093fa07000003be00c3
:102200000405be000200be008ffa0700844f75006f
:1022100000000600889fbe008a9fbe008c9fbe0003
:102220000404b8000506b8008904460060854e0025
:102230000606b8000a054600e0854e000706b8000d
:102240008b054600040eb800890446000a854e003e
:10225000e0854d00050eb8000a0546008b854e004e
:10226000060eb8008b0546000416b8000a054600a5
:102270008b854e000516b8008b054600041eb8007d
:102280008b0546000800be000a01be004f06be00d6
:102290004f05be004f04be000000060027002000ce
:1022a00001f0a70017002000470bde00f60fb20078
:1022b000040032000643e8000a0032004702b3007f
:1022c0000000060001037800f607b2000603700064
:1022d00002003a000703b300000006008702b300c3
:1022e0000000060001037800f607b2000603700044
:1022f000020032000770a000000006000760a00086
:10230000000006006900e100040035006d00e100f6
:10231000030034000002b10001003200000005009b
:1023200010000500800078001104b10003003500a2
:102330009101b10001003c000050a0000000060027
:10234000800078001106b100030035009101b10052
:1023500001003c000050a10000000600a200200087
:102360008000eb005e00370080017800020037003b
:10237000b15978000201e9000200e000fcff3a00d8
:1023800000000600800178000200370081597800c3
:102390000201e9000200e000fcff3a000000060034
:1023a000e13c2300dc080700800078000080eb009f
:1023b0000100e00004003500e13c2300a000200003
:1023c0000c0307004f80de0000000600020037000b
:1023d0000204e0000b003200810178000002780066
:1023e00030417800b14f5100f9ff32001000200059
:1023f00014427800934f5200030031000080eb003c
:10240000000006000000eb0000000600000178005c
:10241000b1417800035978000304e000fcff3a0062
:102420000000060080007800010178003104e0001f
:10243000fdff3a0000005100000006008001780016
:1024400002003700845978000201e9000200e00030
:1024500006003200314278000404e000f9ff3a003f
:10246000020037008059eb000201e9000200e000a1
:10247000fcff3a0000000600889fbe00810478003f
:102480000000e00002003a00b8ec810001003700d3
:10249000000478000800be0075090700000444002d
:1024a0001804e00004003a0040d92300b0ec890091
:1024b0000004eb00070037000800be0051090700c8
:1024c000000044001004e000010032000058eb005e
:1024d000b0ec8900080078004f04be000000060040
:1024e000ee874700889fbe008a9fbe008c9fbe007b
:1024f0008e1f7800f0b79f000106780082057800f3
:1025000000047800080578000a047800b8467800ce
:102510000d00fb007bff07000000e000f9ff3a0020
:10252000d0c2b30080cf56000300320000c0e900e3
:1025300080cf560002003a000a05e800010037008b
:10254000804678000b00e00005003500e18f550063
:102550000300320040022000808f55000600340046
:102560006044b8000c00e000700032007fb09700bb
:10257000000e78006d0037000b00e0000e00320006
:10258000f08f55001a003a0000c3b3009a4f1000b4
:1025900017003a001a40900081c7b300814f5000e5
:1025a0000300320081c5b300814f500010003a0093
:1025b0000a85e8000e003700ab00200000c3b3001e
:1025c0009a4f10000a003a001a40900081c7b300e9
:1025d000814f5000040032008b00200081c5b30001
:1025e000814f500002003a000a85e8000b012000ec
:1025f0000a007800000278000400780001c3b300ec
:10260000b0cf1000fbff3200040778006044b80030
:10261000b4b79f000d003700815523008140500062
:10262000c1ef9f006159b9000800be000015070006
:102630004fea97000401fb00cf91de00c8b79f006e
:10264000d9b79f0002044000838448008e027800be
:102650003e00fb0085bf9f0032ff07000b017800a2
:102660008000780080552300dc0807008fba9700af
:102670000000e000e8ff3a003fb29700850f5500e8
:1026800005003a006044b8000c00e000270032006a
:10269000ffb297002400370004825200d057230075
:1026a00060c07d000000fb000002520017003300f4
:1026b00011003a004fe997000200fb00cf80de00d6
:1026c0000000540081805c00800f5400818f5c000a
:1026d000090039006159b90085bf9f000efc070051
:1026e0008fba97004fb19700dfb19700820f50006b
:1026f000838f58000500320020022000004088002f
:102700000084eb008084eb0005003700d0c2b300ea
:1027100080cf560002003a0060041400e0841c00e0
:102720000c00e00001003200050e78000800be0039
:102730004f0778004f06be004f05be004f04be0095
:10274000ef00b10000000600881f78000204780046
:102750000801780004ff0700080040004f047800db
:1027600000000600881f78000004780082017800cd
:102770000101780088007800403a21000600070037
:102780000000e000020035008040eb00017478009a
:102790004f047800000006006200fa00889fbe0027
:1027a0008a1f780000057800810478000204780010
:1027b0008300780080f92f000f00400042020700dc
:1027c0009a979f00a9979f000000eb00b09f9f0081
:1027d0001885fb008a04fb000a05ea004f55de005d
:1027e00050022000808f54000d003200e10f550090
:1027f0000b003a000a017800880078002f909700bb
:102800009f91970003000100a0979f000000e00047
:102810008e0032003f9897000000e800b09f9f00b4
:102820000a04440050022000808f5400040032004b
:102830000900e000e6ff3a003f9897008400370067
:102840000000eb00909f9f00809f9f00f0979f00eb
:10285000e0979f00d0979f00c0979f000700370028
:10286000e1ce2300010050000000400021ce2300f3
:1028700061007800df98970001007000d09f9f00f2
:102880008804780009047800384578008a00fb0045
:10289000e0ce2300fd0107000000e000f0ff3a0059
:1028a000a1c2b300814f55000e003a00cf889700b7
:1028b0000180e900c08f9f0010007800c09f9f003a
:1028c0000000e00005003d000000ea00c09f9f00fe
:1028d0005f9897000020a000d09f9f000904e800a7
:1028e0000f003700c09f9f000000eb00050037007d
:1028f000f2ff2700820f5000020032006a01b90087
:10290000028040000904780088047800b900fb00c8
:102910000103b100e98f5000f5ff3600c09f9f0012
:10292000e0c2b300984f1000020032000080eb00bc
:1029300019003700a0c2b300d84f100007003a00ba
:10294000cf8897000180e900c08f9f0010007800b9
:10295000a09f9f000804e800100037000000eb0073
:10296000a09f9f008800780005003700f3ff270034
:10297000830f5000020032006a02b90004004100d7
:1029800001047800880078003101fb000203b100e7
:10299000e90f5100f5ff3600a09f9f009844780092
:1029a0008900fb00a0cd2300b80107000000e00073
:1029b000020032000804e800010037008044eb0008
:1029c000c97f9f0080c6b30080cf540004003a0046
:1029d00098cf14000a003a00664050000600370005
:1029e000c0c6b30080cf540005003a0098cf140051
:1029f00003003a0065404000c07f9f000804e800e3
:102a0000e3fb2f008f8141001841780081f92f00ee
:102a10008f804000a0f92f000f0040001000070039
:102a20000000e00009003a00e1fb2f008f80400029
:102a3000a0f92f000f004000b60b07000000e000d7
:102a4000020035000804e80061ff37000080eb0059
:102a50004f0578004f04be000080fa000000060019
:102a6000889fbe008a1f78000004780082447800a6
:102a70000305780070c6b30080cf540021003c00ed
:102a800000c0e90080cf5400cd003d0072405000ee
:102a900080cf5400340132000d003c006c405000e7
:102aa00080cf540047013c0000c0e90080cf5400b3
:102ab000c3003d0050c2b30080cf54003e0132003d
:102ac0007c40400080cf54003e013a00bc003700fb
:102ad00010c6b30080cf5400b900320004003c009f
:102ae0006940500080cf540036013a00660037003c
:102af00030c6b30080cf5400180032000040e80018
:102b00000900370000c7b30080cf5400080132002d
:102b100008003c0000c0e90080cf5400d100320022
:102b200059003c006540500080cf540025013a0018
:102b30000f00370050c7b30080cf5400520032005e
:102b40006340400080cf54004f0032006540500089
:102b500080cf54001b013a00030137001181e900c6
:102b60008208780078009000127578001b01370009
:102b700028609000c2c6b300824f500007003a00a0
:102b80001101780064005100800878001000be0038
:102b90004f89de00820178001100370012c7b300b0
:102ba000824f500003003200a2c6b300824f500093
:102bb00006003a0011017800680051008008780092
:102bc0005001be004000be00050037001180e90042
:102bd0008008780010007800cf80de006109b9001d
:102be000009cbe000294be002862900085c6b3001f
:102bf000854f52000d00320025c6b300854f5200ac
:102c000004003a000000fb00cf80de006109b9003b
:102c10000800370045c7b300854f5200030032005b
:102c2000e6c24200854f520004003a00cf80de0029
:102c30006109b900009cbe000294be003802be00cb
:102c40002803be0078009000d1c2b300e00f52000c
:102c5000e08f5a00e00f5b00e08f5b00080035005a
:102c6000881090000118a30002003200b1c2b30026
:102c7000030037000108a3004c00320001c2b3007a
:102c8000017578004700370028609000c2c6b30085
:102c9000824f500006003a00110178006400510094
:102ca000800878001000be006011b80011003700e5
:102cb00012c7b300824f500003003200a2c6b30017
:102cc000824f500006003a00110178006800510060
:102cd000800878005001be004000be0005003700ab
:102ce0001180e90080087800100078008000eb0077
:102cf0006011b800009cbe000294be0028629000e3
:102d000085c6b300854f52000d00320025c6b300c2
:102d1000854f520004003a000080fb008000eb0069
:102d20006011b8000800370045c7b300854f520056
:102d300003003200e6c24200854f520004003a0010
:102d40008000eb006011b800009cbe000294be0041
:102d5000081090000038a300140032003800be00b4
:102d60002801be00e00f5000e08f5800e00f59002e
:102d7000e08f59000d00320080c7b30080cf5400af
:102d80000300320080c5b30080cf540007003a0032
:102d90007800900001c3b300017578000000e800de
:102da000097578000000e800700498007800900031
:102db000000545006a0498008940780067003700e4
:102dc00028619000c0c4b300804f510006003a0053
:102dd0001101780068005100800878005001be00a1
:102de0004000be000500370011017800640051006a
:102df000800878001000be00bf120700009cbe00d3
:102e00000294be00b8009000780090000100e0003d
:102e100002003d00d1c2b3000800370088109000c6
:102e20000118a30002003200b1c2b3000300370052
:102e30000108a3000400320001c2b300017578004c
:102e40000000e8007004980078009000000545003c
:102e50006a04980089407800080078005b07070042
:102e60006000370028619000c3c6b3001180e900fc
:102e7000834f5100220032000a003c00e4c151009f
:102e8000834f51002500320083c1e800834f510079
:102e900013003200e8c15100834f51001e003a0078
:102ea0000a00370043c7b300834f51001b003200b4
:102eb000e6c14100834f510018003200e9c15100c2
:102ec000834f510014003a00050037008008780055
:102ed00010007800485c90000848780041003700f6
:102ee0008008780010007800680a9000cfa2de0009
:102ef000612bb9000498be000690be00390037006f
:102f0000800878001000780068099000cf91de00fa
:102f10000288be00330037001180e9008008780085
:102f200010007800680c9000080878002d00370029
:102f30001180e9008008780010007800cf80de0062
:102f40006109b900009cbe000294be0078009000a8
:102f5000000545006a04980081c7b30008007800a6
:102f60003d0907001f0037001180e9008008780044
:102f7000100578006a049800d80c90000900e00061
:102f800004003d000a00780026fd07008004780058
:102f900007003700090178008000eb000a00780084
:102fa0008e0607000000e000010032008a04500095
:102fb000190c98000b003700780090000975780014
:102fc0000600370078009000000545000904e00085
:102fd00001003a0059c2b300094d78000000e80032
:102fe000700498000000eb004f0578004f04be000d
:102ff00000000600889fbe008a1f78000004be0003
:10300000c900900069009000808f500005003900d1
:1030100009007800a60607008080eb000000e000b1
:1030200016003500084578004900900008587800df
:10303000c00498001900780000b8a30004003a000a
:1030400000a8a30007003200ea4f540005003a0030
:1030500009007800750507008080eb000000e000a3
:1030600006003a0000c02000190060000200320093
:1030700049009000e00498008a80fb00010078007d
:103080004f0578004f04be00000006000001eb0071
:10309000030037000201e8000404e00007003200ea
:1030a0006103b8006112b8008601420066427a00ee
:1030b000814f5200f7ff3a00010037008001eb001a
:1030c00003007800000006000108780000000600f8
:1030d000900178000200e00002003a000308e900d5
:1030e000050037008080eb001304e000020032008e
:1030f0000308e8009300fb000100780000000600d0
:103100000200fa00f0bf9f00ea8157003fb9970024
:103110008f80e90080862100020007000080fa000d
:10312000000006001200fa00889fbe008a9fbe00c1
:103130008c1f780002047800a0b79f00b1b79f00f1
:103140008300780078805700dfff07000000eb0065
:10315000e0b79f00d8b79f000004eb005fb6970070
:103160009c85fb008b04fb008b05ea00cf5dde0035
:103170000900780063fc07000000e0001b0032003b
:103180006fb097000000e800e0b79f001200200039
:103190008000eb003fb09700afb197000300010043
:1031a000000578000a00780056fc07000000e000e7
:1031b000f3ff3a006fb09700e10f450008003200be
:1031c0000000e900e0b79f000001eb008a007800f2
:1031d0003fb09700afb19700030001002200370015
:1031e0000000e900e0b79f001f00370050022000f8
:1031f000808f540002003a000b05e90018003700e8
:103200000b057800160037006fb097000000e8004b
:10321000e0b79f00120020008000eb003fb0970055
:10322000afb1970003000100bc00fb00810f50000c
:103230000b003200e10f40007c003200efb097003d
:103240008100e900e1b79f000001eb0080007800f9
:103250003fb09700afb19700030001007300370043
:103260000a05e900e8ff3b005fb097008b054000ce
:10327000dbb79f0050022000808f54000300320013
:103280000900e000b5ff3a00680037009b40780075
:103290000040eb00a2c2b30082cf500003003a000e
:1032a0008b05e800dbb79f0001407800a0f79f0086
:1032b0000000eb0080bf9f000b0037000fb89700a5
:1032c000f2ff2700820f5000050032006a01b900aa
:1032d00000fd2f00020040000100400080bf9f0061
:1032e0000a05e800dab79f005fb597009a447800b6
:1032f0008900fb0000fd2f0001004000e90f500095
:10330000eeff360020d4230060ff07000000e0003d
:10331000030032000a05e800dab79f000100370019
:103320008044eb00b9f79f005fb0970081c6b300ff
:1033300081cf540004003a0090cf14000b003a00f3
:10334000e6c0500006003700c1c6b30081cf54006c
:1033500006003a0090cf140004003a00e5c0400097
:10336000b1f79f000000e800d0b79f005fb0970062
:103370009000fb0090d4230044ff07000000e00011
:103380001a003a006fb097000000e800e0b79f0015
:10339000120020008000eb003fb09700afb1970013
:1033a000030001008004780009007800d5fb0700c5
:1033b0000000e000f3ff3a006fb09700e18f440097
:1033c000080032000000e900e0b79f000001eb00b8
:1033d000890078003fb09700afb19700030001006b
:1033e000020037000000e900e0b79f007c80570032
:1033f0003a0b07000000e00003003c000800e0007a
:103400000a003a00080037004ff097000004e0007f
:10341000010032000804e8005fb097000000e800f7
:10342000d0b79f004dff37000004780008007800f7
:103430004f0678004f05be004f04be000080fa0022
:1034400000000600881f7800020478000801780058
:10345000c5fb0700080040004f047800000006008c
:103460000000fa00881f780000047800ea81570005
:103470003fb997008800780020a2210007000700cc
:103480000000e000020035008040eb00017478008d
:103490004f0478000080fa00000006006200fa0085
:1034a000889fbe008a1f780000057800810478009c
:1034b000020478008300780080f92f000f0040009c
:1034c00001ff07009a979f00a9979f000000eb005b
:1034d000b09f9f001885fb008a04fb000a05ea00e4
:1034e0004f55de0050022000808f54000d00320046
:1034f000e10f55000b003a000a01780088007800bf
:103500002f9097009f91970003000100a0979f00c4
:103510000000e0008e0032003f9897000000e800b5
:10352000b09f9f000a04440050022000808f540086
:10353000040032000900e000e6ff3a003f989700df
:10354000840037000000eb00909f9f00809f9f0049
:10355000f0979f00e0979f00d0979f00c0979f0033
:103560000700370081d02300010050000000400018
:10357000c1cf230061007800df9897000100700040
:10358000d09f9f00880478000904780038457800af
:103590008a00fb0080d02300bcfe07000000e00092
:1035a000f0ff3a00a1c2b300814f55000e003a006f
:1035b000cf8897000180e900c08f9f00100078003d
:1035c000c09f9f000000e00005003d000000ea00f1
:1035d000c09f9f005f9897000020a000d09f9f0091
:1035e0000904e8000f003700c09f9f000000eb00b7
:1035f00005003700f2ff2700820f50000200320062
:103600006a01b9000280400009047800880478004b
:10361000b900fb000103b100e98f5000f5ff36004f
:10362000c09f9f00e0c2b300984f1000020032001c
:103630000080eb0019003700a0c2b300d84f100083
:1036400007003a00cf8897000180e900c08f9f00f3
:1036500010007800a09f9f000804e80010003700c9
:103660000000eb00a09f9f00880078000500370055
:10367000f3ff2700830f5000020032006a02b900f6
:103680000400410001047800880078003101fb004b
:103690000203b100e90f5100f5ff3600a09f9f0023
:1036a000984478008900fb0040cf230077fe070094
:1036b0000000e000020032000804e80001003700ca
:1036c0008044eb00c97f9f0080c6b30080cf5400c8
:1036d00004003a0098cf14000a003a0066405000f7
:1036e00006003700c0c6b30080cf540005003a0082
:1036f00098cf140003003a0065404000c07f9f004f
:103700000804e8001801fb00e3fb2f008f81410053
:1037100081f92f008f804000a0f92f000f0040009a
:10372000100007000000e00009003a00e1fb2f0054
:103730008f804000a0f92f000f004000750807009f
:103740000000e000020035000804e80061ff3700d7
:103750000080eb004f0578004f04be000080fa00a7
:1037600000000600889fbe008a1f780000047800d1
:10377000824478000305780070c6b30080cf5400ff
:1037800021003c0000c0e90080cf5400cd003d0086
:103790007240500080cf5400340132000d003c00d4
:1037a0006c40500080cf540047013c0000c0e9004d
:1037b00080cf5400c3003d0050c2b30080cf5400fe
:1037c0003e0132007c40400080cf54003e013a0070
:1037d000bc00370010c6b30080cf5400b9003200df
:1037e00004003c006940500080cf540036013a008c
:1037f0006600370030c6b30080cf54001800320096
:103800000040e8000900370000c7b30080cf540033
:103810000801320008003c0000c0e90080cf5400dd
:10382000d100320059003c006540500080cf540068
:1038300025013a000f00370050c7b30080cf540075
:10384000520032006340400080cf54004f003200ed
:103850006540500080cf54001b013a00030137003f
:103860001181e900820878007800900012757800d4
:103870001b01370028609000c2c6b300824f500081
:1038800007003a00110178006400510080087800b8
:103890001000be004f89de00820178001100370061
:1038a00012c7b300824f500003003200a2c6b3001b
:1038b000824f500006003a00110178006800510064
:1038c000800878005001be004000be0005003700af
:1038d0001180e9008008780010007800cf80de00b9
:1038e0006109b900009cbe000294be0028629000ed
:1038f00085c6b300854f52000d00320025c6b300c7
:10390000854f520004003a000000fb00cf80de002b
:103910006109b9000800370045c7b300854f520060
:1039200003003200e6c24200854f520004003a0014
:10393000cf80de006109b900009cbe000294be0089
:103940003802be002803be0078009000d1c2b30048
:10395000e00f5200e08f5a00e00f5b00e08f5b0049
:1039600008003500881090000118a3000200320002
:10397000b1c2b300030037000108a3004c003200bd
:1039800001c2b3000175780047003700286090003d
:10399000c2c6b300824f500006003a001101780001
:1039a00064005100800878001000be006011b8006b
:1039b0001100370012c7b300824f500003003200dd
:1039c000a2c6b300824f500006003a0011017800f1
:1039d00068005100800878005001be004000be0021
:1039e000050037001180e900800878001000780099
:1039f0008000eb006011b800009cbe000294be0085
:103a00002862900085c6b300854f52000d00320039
:103a100025c6b300854f520004003a000080fb0029
:103a20008000eb006011b8000800370045c7b30004
:103a3000854f520003003200e6c24200854f52001b
:103a400004003a008000eb006011b800009cbe004a
:103a50000294be00081090000038a3001400320049
:103a60003800be002801be00e00f5000e08f580073
:103a7000e00f5900e08f59000d00320080c7b300fd
:103a800080cf54000300320080c5b30080cf5400c3
:103a900007003a007800900001c3b3000175780078
:103aa0000000e800097578000000e8007004980044
:103ab00078009000000545006a049800894078006d
:103ac0006700370028619000c0c4b300804f5100e8
:103ad00006003a0011017800680051008008780063
:103ae0005001be004000be00050037001101780003
:103af00064005100800878001000be007e0f0700af
:103b0000009cbe000294be00b800900078009000b7
:103b10000100e00002003d00d1c2b3000800370000
:103b2000881090000118a30002003200b1c2b30057
:103b3000030037000108a3000400320001c2b300f3
:103b4000017578000000e80070049800780090008b
:103b5000000545006a0498008900fb000800780011
:103b6000650007006000370028619000c3c6b300fd
:103b70001180e900834f5100220032000a003c000e
:103b8000e4c15100834f51002500320083c1e80099
:103b9000834f510013003200e8c15100834f5100a0
:103ba0001e003a000a00370043c7b300834f51009c
:103bb0001b003200e6c14100834f51001800320063
:103bc000e9c15100834f510014003a00050037004d
:103bd0008008780010007800485c90000848780061
:103be000410037008008780010007800680a9000d3
:103bf000cfa2de00612bb9000498be000690be0083
:103c000039003700800878001000780068099000bb
:103c1000cf91de000288be00330037001180e9003a
:103c20008008780010007800680c90000808780080
:103c30002d0037001180e90080087800100078001e
:103c4000cf80de006109b900009cbe000294be0076
:103c500078009000000545006a04980081c7b30011
:103c600008007800fc0507001f0037001180e900fc
:103c700080087800100578006a049800d80c90003d
:103c80000900e00004003d000a007800e5f90700a3
:103c90008004780007003700090178008000eb00fd
:103ca0000a0078004d0307000000e0000100320028
:103cb0008a045000190c98000b003700780090001f
:103cc000097578000600370078009000000545006f
:103cd0000904e00001003a0059c2b300094d780020
:103ce0000000e800700498000000eb004f05780029
:103cf0004f04be00000006002f04b000889fbe00e5
:103d00008a9fbe008c9fbe008e1f7800000778003f
:103d100081f79f003e04be002e05be005e089000a5
:103d20000000e00002003d0060002000500f9800fd
:103d30008e00780020fb2f000f0040009c0507003c
:103d4000e20f50000a003a0030002000100f9800e7
:103d5000b1c9b3000ff097008140400040502300ec
:103d6000e1cf50000d003e00005023000b00370053
:103d70000000e0000f00340030002000100f980019
:103d8000b1c9b3000ff1970081404100c05023003a
:103d9000e1cf500001003e0080502300ee00900073
:103da000b0487800b06878001040780090409800e3
:103db000f30037000000e00005003a0022fb2f006e
:103dc0000f014100001978008001eb00e700370087
:103dd0006022b8006033b8000800be000a01be00cf
:103de000bb0e07000000e00001003d000bf0a20048
:103df000705927009f9897000088b900026a280030
:103e00001300200057f30700640650009c9f9f009a
:103e100013003b0063061600c0ff2f00000666007b
:103e20008c01ea00939f9f000d5123000800be0003
:103e30000a01be00070037000c08a300030032008f
:103e40003d02be002d03be00ff0f07000c86d1000f
:103e5000e88646000c00e000f7ff3c001800370041
:103e60000c00e00018003200c0ff2f0000066600c2
:103e70009c9f9f000d5123006000b80002002000ad
:103e800003ff2300070037000c08a30003003200e3
:103e90003d02be002d03be00eb0f07000c86d100d3
:103ea000e88646000c00e000f7ff3c000002be0080
:103eb0000203be000800be000a01be00330f070067
:103ec0000004be000205be00de08900060c6b3001c
:103ed0000ff29700804f5200040032006000200073
:103ee00062c4b300824f520002003a009f9a9700ca
:103ef0006a80420081004000f1b79f000103780012
:103f0000f30f53000200340037012000f7b79f0081
:103f100000c3b300c0779f0056fb2f000f03430080
:103f20000e007800a0b79f00060778003d0037001c
:103f30000800be000a01be008e0e07000006be008b
:103f40007fb1970068015100f2b79f004240a9007d
:103f50000c003400b30e07000002be000203be00d6
:103f60000800be000a01be00b70e07006022b800bc
:103f700046782d0077192400b30f07000004be0017
:103f80000205be00e80047008e0020000802be00c7
:103f90000a03be00b4b79f00c5b79f00d6b79f0005
:103fa000e7b79f000c01be00010478000c00370049
:103fb000a400200005002000c0fd2f000f004000dd
:103fc000710207006fa89700ffa897000fb1970034
:103fd0009fb1970005c3b300056441000001be0016
:103fe000e00f5100e08f5900030034000e07e90094
:103ff000e10f4700eeff3a00880078003fb49700d9
:10400000cfb497005fb59700efb597000200370077
:1040100000c3b300806078000e07e900fcff3b009e
:10402000688740007fb397000600e0000700340077
:104030006022b8006033b8000800be000a01be006c
:10404000280e07000000e000b9ff3c000e037800d6
:104050002fb7970051fb2f008f80400001035300c2
:104060009f9b970067804300909f9f00020037004e
:104070000603e9000000e9000101780082007800f1
:1040800003c3b300b1cf1100f9ff3200909f9f002e
:10409000de09900061c6b3000ff29700814f520015
:1040a0000300320061c4b300814f520002003a00a5
:1040b0000000e8000a0037001000200051c6b300dd
:1040c0008ff2970081cf5200050032000540780042
:1040d00050c4b2000080fb000000e9004f00de0089
:1040e00083014000868f5100010034008601780072
:1040f0000300e0001d00350000c3b300868f5100af
:1041000006003d0062c279006940400041c3b3002f
:10411000814f520001003c00694050008300e900db
:104120008100410001003700840178000302e900aa
:1041300001037800a142780080cf5200faff3200dc
:1041400091c3b300814f500001003a00054be800d5
:104150000400e00005003d000201e9008301e800e1
:104160001f9b97000603e800969f9f008ff3970020
:104170008700fb001f9a97000e00780006000700da
:104180004f0778004f06be004f05be004f04be002b
:104190002f04b10000000600f0874700889fbe0092
:1041a0008a9fbe008c9fbe008e1f7800000478009e
:1041b000814478000205be00040678000b00e00090
:1041c00002003c001b0020002ada230060c6b30076
:1041d00080cf54000e00320060c4b30080cf540082
:1041e0000b00320070c6b30080cf540003003200d1
:1041f00070c4b30080cf540081003a00e40f460041
:104200007f00350058089000800f56007c003d006c
:104210000c06e80060c6b30080cf540010003200e6
:1042200060c4b30080cf54000d003200081090002d
:104230000038a30004003a0058089000808f550011
:1042400001003d005b0c9800580890000c005000e5
:10425000500c980002003b000000eb00500c98004e
:1042600018089000e80090000c00e00026003c00d8
:1042700002c3b300827078000000e800100c9800c0
:10428000d80890000100e00003003c008810900076
:104290000138a30005003200e8009000e2c2b3003c
:1042a000827078000000e800100c98005808900018
:1042b0008c00ea00810f500001003d000006ea007a
:1042c0008c00ea00210c9800000646005c0c980067
:1042d0008b0f5600010034000b0678003c0c980050
:1042e000e800900018089000008040000c01780061
:1042f0008a0078001cf80700580890000c0650004f
:104300004c0c9800900037008c8f550018003d0031
:10431000008040000b0178008a00780012f8070046
:104320001808900000804500100c98008b0556007e
:104330002b0c9800d80890000100e00003003c001e
:10434000881090000138a30006003200e8009000b9
:10435000e2c2b30082707800380890000000e800e4
:10436000300c980058089000400c980076003700f8
:10437000008040000c0178008a007800faf70700fe
:104380001808900000004600100c98008c8555001d
:10439000d80890000100e00003003c008810900065
:1043a0000138a30005003200e8009000e2c2b3002b
:1043b000827078000000e800100c98005808900007
:1043c000808f55000100340080057800e8009000df
:1043d00018089000008040008c0045000b01780018
:1043e000e1f70700180890000b004000100c98003f
:1043f000580890008b0550002b0c98005200370095
:1044000018089000e80090009a7078000000e8001a
:10441000100c9800d80890000100e00003003c0058
:10442000881090000138a30005003200e8009000d9
:10443000e2c2b300827078000000e800100c98001f
:10444000580890000000e000100034008b05e900df
:10445000808f55000100340080057800e80090004e
:1044600018089000008040008a00e8000b017800e6
:10447000bdf70700180890000b004000100c9800d2
:10448000580890008b0550002b0c9800e800900015
:104490001808900000804000095878000007e800e4
:1044a0000c00e00004003500b1c2b3000148780000
:1044b0008e04780004003700d1c2b30001487800b0
:1044c0008e0478000c06ea007d8557008006eb001c
:1044d00009003700a20020008c007800728057008d
:1044e000470007007fb097008fb89700016d7800f4
:1044f000000678008d06e8000c00e000f5ff3c00a7
:104500000d00e00009003a008e04780000c3b300fb
:10451000805c7800050037008d06e900fc805700bc
:1045200061c07e0002c3b300825c40000d00e00069
:10453000f9ff3c00e800900018089000008040005f
:1045400080845400390c98000810900074006000ba
:10455000f00f50000e003a0098089000780090008c
:1045600000804000a808900001004000b8089000ba
:1045700001004000c808900001004000f8089000c9
:10458000810f500002003d0000805000000c980098
:104590004f0778004f06be004f05be004f04be0017
:1045a0000f01b10000000600889fbe0000047800e3
:1045b0000100780082047800880178000901780001
:1045c000110020009c000700890f500001003200fc
:1045d0000004eb00080078004f04be000000060055
:1045e0000000fa00e88157004fb99700e13c230032
:1045f000402d2200a9fb07000080fa000000060001
:104600008002780001037800110009000203d8003d
:1046100080017800830a78000299b90002015300f2
:10462000920298000500780000000600889fbe00f6
:104630008a1f7800000478000800e0000d003a00ae
:10464000c8412300700544008004eb005800780046
:104650000000e00004003200f4ff07000000e0006a
:1046600001003d008084eb008a0f5400f7ff3a0000
:104670002500370000002200180060008004eb00d5
:1046800021003200a80490000f00370009015100fa
:10469000384090000000fb0089007800d9f0070046
:1046a0000000e00007003c00280090004004980053
:1046b00060049800500c98001890a0008084eb00d3
:1046c000110037008084440048019000828f54001c
:1046d000eeff390028009000400498009800780010
:1046e00002c020000281600001003a003800900002
:1046f00001e8a300020032006004980001003700c6
:10470000500c98008004eb00090078004f057800f9
:104710004f04be0000000600889fbe008a9fbe00b6
:1047200080047800010478002c003700c800900055
:1047300068009000808f5000040039000800780065
:10474000db0007000000e0003700350000402000db
:104750001800600009003200a10020000900780064
:10476000b9000700800578000b00e000030032006c
:10477000618514000a8545000400370009007800af
:1047800028f70700000578008005eb00480090003e
:10479000e8009000808050008a8f500002003100b5
:1047a000010578008005eb000a0178008900780097
:1047b000edf60700480090000a0040004004980011
:1047c0000b00e000040032000800780097ff0700ab
:1047d0000000e00014003a008a8444001904e0005c
:1047e000d2ff3a000080200018006000060032006e
:1047f000080078008dff0700800078000080eb0043
:104800000100e00009003a0001c02000988060002b
:104810000000eb00050032004800900060049800a2
:104820000000eb00010037000080eb004f05be00e8
:104830004f04be0000000600889fbe008a9fbe0095
:104840008c9fbe008e1f780000067800010478005f
:1048500002007800830478000881b900020778001c
:104860000200e000420032000800e0004100320097
:1048700082057800c900900069009000808f500088
:104880000400390009007800890007000000e000fa
:104890002900350000402000190060000a003200a5
:1048a0000b017800a10020000c0078004b000700ed
:1048b000800678000d00e000060032006105160059
:1048c0000a854600040037000b0578008006eb00df
:1048d000010037000b05780049009000e9009000c6
:1048e000808050008a8f500002003100010578005e
:1048f0008006eb000a0178008c0078009af6070029
:104900008a855500490090000a004000c0049800c4
:104910000d00e000040032000900780043ff0700aa
:104920000000e00004003a000b00e000020032004a
:104930000a064600cfff3700008020001900600003
:10494000020032000900780038ff070000c0200094
:10495000190060000200320049009000e004980055
:104960008b055700110009008885d8000100370029
:104970000000eb004f0778004f06be004f05be0059
:104980004f04be0000000600881f78008a9fbe000a
:104990008c9fbe00000478000205be000406be0025
:1049a0000401be000a00be006ef00700008cbe00cd
:1049b0000c01be001e0c07000005550081855d003e
:1049c0002a0498003b049800080078004f06be00b7
:1049d0004f05be004f0478000000060003003700ba
:1049e000b0cf1000050032000201e900800178001c
:1049f0000200e000faff3a00000005000300780022
:104a000000000600000178000700370086cf520042
:104a100002003a0000805100000006003443780094
:104a20000604e000f9ff3a0082017800b242780003
:104a30000504e0000200320001027800f7ff3700b1
:104a400000805100000006000001eb000002780029
:104a5000b041780081cf510001003a000401780094
:104a60000304e000f9ff3a000200780000000600ad
:104a70000001780008003700810278003543780093
:104a80000604e00002003a00008051000000060029
:104a9000864f5200f9ff3a008201780032427800d6
:104aa0000404e000f4ff3a0000805100000006001a
:104ab000889fbe008a1f780000047800c80090001c
:104ac000680190000000eb00828f50003c0039002c
:104ad000180078002200290002016000e20f510056
:104ae00007003200012024000000e00001003d002a
:104af00001202000008c70000080eb0030003700a7
:104b00000200260002006000820f500009003a00f7
:104b100038009000808f50000600390008007800af
:104b2000c2fe0700800078000080eb000100e0007a
:104b300023003a001805780000c02000000065003e
:104b400018003a00a804900060022000080040000d
:104b5000808f540013003a000020200060060700f8
:104b6000200498000000e00005003a0029049800a5
:104b7000490498008904e8003904980008003700c7
:104b80000a60a0000a0c7800400498000120200070
:104b90008080400031049800400c9800500c980030
:104ba0001a04070028009000500498003800900074
:104bb0006004980000002600180c70000000eb0054
:104bc0004f0578004f04be0000000600cf04b0007f
:104bd000889fbe008a9fbe008c9fbe008e1f7800fb
:104be00000067800814678003c00be002c01be0023
:104bf000d0979f00e1979f00f2979f00839f9f00af
:104c000010c6b30080cf56001200320010c4b300ab
:104c100080cf56000f0032005c0890000000e000da
:104c200002003d0060002000090037000000e000a5
:104c300008003a0070c6b30080cf5600030032006f
:104c400070c4b30080cf560002003a00100020006c
:104c5000500e98008c00780080fa2f000f00400062
:104c6000d3010700e20f50000f003a00300020008f
:104c7000100e9800e042230011c6b30081cf560009
:104c800019003200e4c0400081cf56001600320007
:104c9000204323008140e80081cf560012003a00f3
:104ca000e0422300100037000000e0001400340050
:104cb00030002000100e98006043230011c6b3009e
:104cc00081cf560008003200e4c0400081cf56007a
:104cd00005003200a04323008140e80081cf560048
:104ce00001003a0060432300ec009000b0487800d7
:104cf000b06878001040780090409800a601370016
:104d000011c6b30081cf56000300320011c4b300b6
:104d100081cf56000e003a00ec00900002c3b300b1
:104d2000825878006106980082c5b30013c6b300ac
:104d300083cf560001003a0082c7b3008258780042
:104d400061069800fc0090008180e80071069800e0
:104d50000000e00005003a00c0979f008001eb00d2
:104d600022fb2f000f0141008701370010c6b3005e
:104d700080cf56000600320010c4b30080cf56002a
:104d80009a003a00f1442300d1b79f000200370097
:104d9000e2432300d2b79f005c0890001b02200072
:104da0000000e000010035008005e8000b05e80088
:104db0006022b8006033b8005f909700ef909700d2
:104dc0007f9197008f999700c10a07000002780031
:104dd0003c00be002c01be000400e00001003d00cc
:104de00003f0a200d0979f00e1979f00f2979f00e9
:104df000839f9f00cf919700e4815100c3979f004c
:104e00000040eb00a0779f003efb2f000f074700fc
:104e100031003700c201200003002000a0fa2f005b
:104e20000f004000320407005f909700ef9097005a
:104e30007f9197008f99970090b79f00a1b79f002f
:104e4000b2b79f00c3b79f00ca0a07000004be00a4
:104e5000670555004240a9000c003400f10a070024
:104e60000002be000203be001fb09700afb0970063
:104e70003fb19700cfb19700f30a0700d0979f008a
:104e8000e1979f00f2979f00839f9f00670747006d
:104e900070002000050037006f676400cc48dd001b
:104ea0004444de0008847000c4ccde00e00f5400ef
:104eb000e08f5c00050034000000e900e10f4000d5
:104ec000f5ff3a00010037000067eb000000e90041
:104ed000fdff3b00670747000a00e00009003400bf
:104ee0006022b8006033b8005f909700ef909700a1
:104ef0007f9197008f9997007a0a07000000e000e1
:104f0000c4ff3c0032fb2f000f0141000207570095
:104f10008e0178008b0f5700010034008b01780060
:104f20000300e0002b0035000040eb008e8f5100a5
:104f30000a003d0082fa2f000f01410003004100ea
:104f4000b0489000f0c0b300e7cf500003003c0031
:104f50000040eb0001003700810178008300e90088
:104f600034fb2f000f024200010142001242780080
:104f7000804f5200f8ff3200ef4f500001003a001e
:104f80000449e8000100e00007003d008301e8005b
:104f90004f90970064004000c0979f0022fb2f00b5
:104fa0000f0141000200370032fb2f000f014100ca
:104fb0000300780005003700e24078008100fb0024
:104fc0005fb29700e4c07800017178000000e9004a
:104fd000f9ff3b005c0890000000e000ea003d00a3
:104fe0000300e900500e9800e70037005f94970037
:104ff000ef9497007f9597008f9d97006022b800ef
:105000006033b8000800be000a01be00300a070085
:105010000000e00005003d000bf0a200d8979f00c3
:10502000e9979f00fa979f008b9f9f007059270078
:10503000cf9097000088b900026a28001300200072
:10504000c8ee070064045000c8979f0015003b009d
:1050500063041400c0ff2f00000464000800ea008d
:10506000c0979f005f909700ef9097007f91970007
:105070008f9997000a462300070037000808a3000d
:10508000030032003a02be002a03be006e0b070086
:105090000884d100680545000800e000f7ff3c00e7
:1050a0001a0037000800e0001c003200c0ff2f008b
:1050b00000046400c8979f000a4623006000b800ff
:1050c0000200200003ff2300070037000808a300a8
:1050d000030032003a02be002a03be005a0b07004a
:1050e0000884d100680545000800e000f7ff3c0097
:1050f0000002be000203be005f909700ef90970091
:105100007f9197008f999700a00a0700d0979f0082
:10511000e1979f00f2979f00839f9f005c0f900094
:1051200060c6b30080cf560004003200600020004b
:1051300061c4b30081cf560002003a00cf909700bf
:105140006a8040000e074000f30f57000100340052
:105150003e01200000c3b300a0779f003bfb2f005f
:105160008f854500350037005fb09700efb097009e
:105170007fb197008fb99700fe0907000004be00b9
:10518000680757004240a90010003400250a0700b4
:105190000002be000203be005fb09700efb09700b0
:1051a0007fb197008fb99700270a07006022b800e7
:1051b00046782d0077192400230b0700d0979f0015
:1051c000e1979f00f2979f00839f9f00e88545002d
:1051d0008a0020000801be000c003700a400200057
:1051e00005002000a0fd2f000f004000e6fd070095
:1051f0005fa89700efa897007fa997008fb197004d
:1052000004c3b300846541000001be00e00f5100fb
:10521000e08f5900060034000a05e900e10f45005f
:10522000eeff3a000200370000c3b300806578004b
:105230000a05e900fcff3b00e88545000e00e000a0
:105240000d0034005f909700ef9097007f919700da
:105250008f999700d0b79f00e1b79f00f2b79f00ea
:1052600083bf9f006022b8006033b8009d0907002b
:105270000000e000bcff3c0031fb2f008f804000ad
:10528000818555004f91970067004100c0979f00ae
:10529000020037008b05e9000000e90001017800f9
:1052a0008200780003c3b300b1cf1100f9ff3200d0
:1052b000c0979f00dc09900061c6b30081cf560003
:1052c0000300320061c4b30081cf560002003a00ef
:1052d0000000e800090037001000200051c6b300ac
:1052e00081cf5600050032000d40780050c4b20056
:1052f0000080fb000000e9004f00de008301400059
:105300008b8f5100010034008b0178000300e00016
:105310001d00350000c3b3008b8f510006003d0017
:1053200062c279006940400041c3b300814f52001e
:1053300001003c00694050008300e9008100410009
:1053400001003700840178000302e90001037800be
:10535000a142780080cf5200faff320091c3b3001f
:10536000814f500001003a00054be8000400e000c6
:1053700005003d000201e9008301e8004f9297001b
:105380000402e800c4979f004f9297008d40780078
:105390000c0078007c0407004f0778004f06be0021
:1053a0004f05be004f04be00cf04b1000000060050
:1053b000889fbe0000047800e68440001900d000f9
:1053c0004500de00f27f2000820f500010003a00fe
:1053d000000ceb00990478006f816400200020002d
:1053e0001b003a00210190000200e00018003a0082
:1053f000110190000200e00015003a0010002000aa
:105400001100e000120032002000200010003700e0
:105410000000e00004003a00010078006802070084
:105420000000e00008003c00f200280019016100c3
:1054300001fe2300810c710021c02f00010c4000ef
:105440000080eb0002003700000ceb000000eb00d6
:105450004f04be0000000600fc874700889fbe0086
:105460008a9fbe008c9fbe008e1f780000067800c9
:1054700080c5b30080cf50000a0032007740400062
:1054800080cf50000a0032006940400080cf5000b9
:105490000b00320090cc230080bf9f00ae002000a4
:1054a0000a00370082cb230082bf9f00060037002e
:1054b00093cc230083bf9f008e00200003003700a1
:1054c00094cc230084bf9f000e0120003c02be004c
:1054d0002c03be000605be000404be0040c6b30097
:1054e00080cf5000030032006540400080cf500064
:1054f0000b003a00e00f5200e08f5a00e00f5b0013
:10550000e08f5b0006003d006000b8006011b8004d
:105510000404500085845800060559008785590009
:10552000e80f57000400320040002000f00f570041
:1055300038003a000100370030002000e00f54002e
:10554000e08f5c00e00f5d00e08f5d0004003a003a
:10555000dc0890008d0120000100e0000600320010
:105560008e00e900888060008fba9700e5c078005f
:10557000f1ef9f007d012000800078008100e900ac
:10558000050033008b05d1000a85d3008984d30040
:105590000884d300f9ff3700089ebe000a96be00bb
:1055a000120037008d06e9008e00e900848060005b
:1055b0000fb99700e2c1780082fd2f000f01410072
:1055c00003f17e00800078008100e90005003300cf
:1055d0008783d1000683d3008582d3000482d30061
:1055e000f9ff3700049ebe000696be003c02be00d6
:1055f0002c03be00e00f5200e08f5a00e00f5b006a
:10560000e08f5b008b0034000d00e000e5ff3c0004
:10561000880037002c60900081c6b300814f500095
:105620000b00320006003c000004e00008003200dd
:10563000e6c05000814f50004e003a000400370091
:10564000c1c6b300814f50004a003a002100370024
:105650000800e00004003a005c0890008d01200082
:105660000000e00006003200110009000e84d8009e
:105670000fb99700e2c07800f1ef9f007d01200094
:10568000110009000e84d8000a003700110009003b
:105690000e04d8008d06e9000e81b9000204540002
:1056a0008fb8970061417c0081fd2f008f80400002
:1056b00082f07e00000478000800e0000200320062
:1056c0000d00e000f1ff3c00cfc4de00614db900e9
:1056d00025003700e00f5400e08f5c0004003a0022
:1056e0005c0890008d0120000000e00007003200ff
:1056f0006171b9000800be0074f007008fb997000f
:10570000e3417800f3ef9f007d0120006171b90053
:105710000800be0000f007000b0037006171b900ff
:105720000800be000fed07008d06e90000f1b9008a
:10573000020454000fba9700e4427c0084fd2f005d
:105740000f02420005f27e000004be00e00f500090
:10575000e08f5800020032000d00e000efff3c0037
:105760004fcdde008a057800089ebe000a96be0076
:1057700030003700e00f5400e08f5c00e00f5d0068
:10578000e08f5d0004003a005c0890008d0120006d
:105790000000e000090032006172b900612bb9001d
:1057a0000800be000a01be00dced07000fba97003a
:1057b00064427800f4ef9f007d0120006172b9001f
:1057c000612bb9000800be000a01be00cced070045
:1057d0000d0037006172b900612bb9000800be00ee
:1057e0000a01be00d1ed07008d06e90000f2b90004
:1057f000040454008fba970065427c0085fd2f0099
:105800008f82420084f27e00009ebe000296be009f
:105810003c04be002c05be00e00f5400e08f5c008d
:10582000e00f5d00e08f5d00020034000d00e0003d
:10583000e8ff3c00e80f570010003a000c10900001
:105840000038a3000d003200f78f560006003e001e
:1058500085fd2f008f824200e5c07e0000c3b300ab
:1058600080cf5000050032008d06e90002c3b3006e
:1058700081fd2f008f80400082f07e00788116002d
:10588000120e98006c00900083fd2f008f81410064
:105890008d804100b4f207001c089000dc089000e5
:1058a000810f500006003d0000805000000e98005f
:1058b0000c1090000040a100001698000f00370067
:1058c0000100e0000d003d008c109000f4806000ad
:1058d000f08f500009003a007c099000fc00900015
:1058e000810051000c09900082805000008050001f
:1058f0004240a90001003400000e98004f077800d4
:105900004f06be004f05be004f04be00cf01b100e0
:10591000000006000400fa00889fbe008a9fbe00b7
:105920008c1f78000004780001067800f80d9000c4
:10593000780090008085550008089000808555000b
:105940001808900080855500280890008085550033
:1059500038089000808555004808900080855500e3
:105960000002220090bf9f0000032300a0bf9f0001
:10597000081090000028a30015003a000b00e0007a
:10598000130034000b0578008a047800e20f5500fc
:105990000100360029002000c801900009017800ac
:1059a000ee8057005800900003000100500498005a
:1059b0000000e0008c003200680890000900400000
:1059c000600c9800090555004240a900eeff3c001c
:1059d000780190000200e0000c003400c801900043
:1059e0008c007800580090000300010050049800db
:1059f0008080eb000000e0007c003200e8089000ae
:105a00007800900000804000600c9800880c9000a6
:105a10000900e0001100340009057800e28f54000d
:105a2000010036002a002000c80190000a01780019
:105a3000ec805700580090000300010050049800cb
:105a40000000e00068003200680890000a00400092
:105a5000600c98008a845400edff3700180990000c
:105a60000200e0000c003400c8019000e800900043
:105a70005800900003000100500498008080eb0063
:105a80000000e00059003200e8089000180890007b
:105a900000804000600c9800a80c90000900e00015
:105aa0001100340009057800e28f5400010036002f
:105ab0002a002000c80190000a017800ec805700fd
:105ac0005800900003000100500498000000e0001e
